:100000000C94B7020C94D4020C94D4020C94D40235
:100010000C94D4020C94D4020C94D4020C94D40208
:100020000C94D4020C94D4020C94D4020C94D402F8
:100030000C94D4020C94D4020C94D4020C94D402E8
:100040000C94D4020C94D4020C94D4020C94D402D8
:100050000C94D4020C94D4020C94D4020C94D402C8
:100060000C94D4020C94D4020C94D4020C94D402B8
:100070000C94D4020C94D4020C94D4020C94D402A8
:100080000C94D4020C94D4020C94D4020C94D40298
:100090000C94D4020C94D4020C94D4020C94D40288
:1000A0000C94D4020C94D4020C94D4026E616E00B1
:1000B000696E6600000000000000005F000000079D
:1000C000000700147F147F14242A7F2A12231308A8
:1000D000646236495522500005030000001C22418D
:1000E000000041221C0014083E081408083E0808BD
:1000F0000050300000080808080800606000002078
:10010000100804023E5149453E00427F40004261D2
:100110005149462141454B311814127F102745455E
:1001200045393C4A49493001710905033649494975
:1001300036064949291E00363600000056360000B2
:10014000081422410014141414140041221408024B
:1001500001510906324979413E7E1111117E7F49D4
:100160004949363E414141227F4141221C7F494954
:1001700049417F090909013E4149497A7F08080838
:100180007F00417F41002040413F017F0814224110
:100190007F404040407F020C027F7F0408107F3E7A
:1001A0004141413E7F090909063E4151215E7F09D7
:1001B000192946464949493101017F01013F404023
:1001C000403F1F2040201F3F4038403F6314081429
:1001D0006307087008076151494543007F414100AA
:1001E00002040810200041417F0004020102044083
:1001F00040404040000102040020545454787F489D
:100200004444383844444420384444487F385454A3
:100210005418087E0901020C5252523E7F08040411
:100220007800447D40002040443D007F1028440079
:1002300000417F40007C041804787C08040478386E
:10024000444444387C14141408081414187C7C08A2
:100250000404084854545420043F4440203C404087
:10026000207C1C2040201C3C4030403C442810286E
:10027000440C5050503C4464544C440008364100F7
:1002800000007F00000041360800100808100878C0
:1002900046414678000000000000005F00000007B3
:1002A000000700147F147F14242A7F2A12231308C6
:1002B000646236495522500005030000001C2241AB
:1002C000000041221C0014083E081408083E0808DB
:1002D0000050300000080808080800606000002096
:1002E000100804023E5149453E00427F40004261F1
:1002F0005149462141454B311814127F102745457D
:1003000045393C4A49493001710905033649494993
:1003100036064949291E00363600000056360000D0
:100320000814224100141414141400412214080269
:1003300001510906324979413E7E1111117E7F49F2
:100340004949363E414141227F4141221C7F494972
:1003500049417F090909013E4149497A7F08080856
:100360007F00417F41002040413F017F081422412E
:100370007F404040407F020C027F7F0408107F3E98
:100380004141413E7F090909063E4151215E7F09F5
:10039000192946464949493101017F01013F404041
:1003A000403F1F2040201F3F4038403F6314081447
:1003B0006307087008076151494543007F414100C8
:1003C00002040810200041417F00040201020440A1
:1003D00040404040000102040020545454787F48BB
:1003E0004444383844444420384444487F385454C2
:1003F0005418087E0901020C5252523E7F08040430
:100400007800447D40002040443D007F1028440097
:1004100000417F40007C041804787C08040478388C
:10042000444444387C14141408081414187C7C08C0
:100430000404084854545420043F4440203C4040A5
:10044000207C1C2040201C3C4030403C442810288C
:10045000440C5050503C4464544C44000836410015
:1004600000007F00000041360800100808100878DE
:100470004641467800407A10F35A00A0724E18099F
:100480000010A5D4E80000E87648170000E40B54FB
:10049000020000CA9A3B000000E1F50500008096CA
:1004A0009800000040420F000000A08601000000FC
:1004B000102700000000E8030000000064000000B6
:1004C00000000A00000000000100000000002C767F
:1004D000D888DC674F0823DFC1DFAE59E1B1B7969A
:1004E000E5E3E453C63AE651997696E8E6C28426F7
:1004F000EB898C9B62ED407C6FFCEFBC9C9F40F2D3
:10050000BAA56FA5F490055A2AF75C936B6CF9674E
:100510006DC11BFCE0E40D47FEF520E6B500D0ED13
:10052000902E0300943577050080841E080000207B
:100530004E0A000000C80C333333330F986E128319
:100540001141EF8D2114893BE65516CFFEE6DB18ED
:10055000D1844B381BF77C1D901DA4BBE4242032B2
:1005600084725E228100C9F124ECA1E53D271124AB
:100570001FBECFEFDAE0DEBFCDBF11E0A0E0B1E0FB
:10058000EAE7F1E202C005900D92A23FB107D9F768
:1005900023E0A2EFB1E001C01D92AC3EB207E1F74B
:1005A0000E943A030C94BB100C9400008FE30E944D
:1005B000410A84B18C7F84B9089548E651E060E037
:1005C00080E00E940E0A4FE651E068E080E00E9461
:1005D0000E0A4CE751E060E180E00E940E0A45E817
:1005E00051E060E280E00C940E0A23B1217080910A
:1005F000F301281741F02093F30181E090E02223DA
:1006000021F080E0089580E090E0089523B1227009
:100610008091F201281741F02093F20181E090E0EF
:10062000222321F080E0089580E090E008950E9468
:10063000F502892B51F40E94060331E020E0892B5A
:1006400009F430E0832F922F089581E090E008951F
:10065000CF93DF93EC010E940603892B39F0CE0182
:10066000019663E070E00E94BC0EEC01CE01DF91C8
:10067000CF910895CF93DF93CDB7DEB7C45AD10998
:100680000FB6F894DEBF0FBECDBF50E6A52E51E0E9
:10069000B52E68E0C62E78E0E72E00E010E020E2FC
:1006A00032E440E050E068E272E4CE0180579F4FB0
:1006B0000E94BB0A4E0121E5820E911CE0E06E2EE5
:1006C000E1E07E2E24013FE3430E511C530130E153
:1006D000C32E40E1E42E00E010E09801B901A8012A
:1006E000C4010E94BB0A85E1880E911C20E2620EC3
:1006F000711C8414950451F780E88093610081E0B7
:10070000809361000E94D6020E945A080E94DD0276
:100710000E9447080E941703892BB1F300E010E004
:100720000E945A08C8010E9428038C010115110576
:1007300009F0E5C00E945A0846E951E060E080E017
:100740000E940E0A4EE951E068E080E00E940E0A25
:1007500044EA51E068E180E00E940E0A4FEA51E06D
:1007600060E280E00E940E0A80E090E00E94280390
:100770008C010E94F502892B09F4BEC083E0382E5B
:100780009EEBA92E91E0B92E8E010F5F1F4F412CD9
:10079000512C2EE9622E22E4722E0E945A084BEB55
:1007A00051E060E080E00E940E0A1F923F92BF92EB
:1007B000AF921F930F930E943B10A80160E08CE062
:1007C0000E940E0A41EC51E060E081E10E940E0AB5
:1007D0001F921F92BF92AF921F930F930E943B10E4
:1007E000A80160E088E20E940E0A28E044E568E083
:1007F00080E00E948508CE0180579F4F0E94DF0A4B
:10080000C057DF4FC880D980EA80FB80C059D040F4
:1008100020E030E040E85FE3C701B6010E941B0C16
:100820000E949C0E0E94FF0C4B0120E030E040EA49
:1008300050E4C701B6010E941C0C0E949C0E6B0183
:100840007C010E94F5020FB6F894DEBF0FBECDBF4B
:10085000892B31F120E030E040E450E4C057DF4F15
:10086000688179818A819B81C059D0400E941B0C8C
:10087000C057DF4F688379838A839B83C059D040F8
:1008800018141904B4F180E090E0A0E4B0E4C0577B
:10089000DF4F88839983AA83BB83C059D04029C086
:1008A0000E940603892B29F120E030E040E450E467
:1008B000C057DF4F688179818A819B81C059D040C0
:1008C0000E941C0CC057DF4F688379838A839B8307
:1008D000C059D040C701B6010E94FF0C63357105B5
:1008E00044F0C057DF4F488259826A827B82C059E8
:1008F000D0400E94470851CF0E94470817CF0130CF
:10090000110511F50E945A0846EC51E060E080E0C4
:100910000E940E0A4EEC51E068E080E00E940E0A50
:1009200044EA51E068E180E00E940E0A4FEA51E09B
:1009300060E280E00E940E0A81E090E00E942803BD
:100940008C010E944708DBCF0230110511F50E948F
:100950005A084DED51E060E080E00E940E0A45EE3D
:1009600051E068E080E00E940E0A44EA51E068E14C
:1009700080E00E940E0A4FEA51E060E280E00E94AF
:100980000E0A82E090E00E9428038C010E94470832
:10099000DBCF0E944708C4CEA3E1B0E0E2EDF4E073
:1009A0000C94D00E7C011B016A01FC011782168297
:1009B000838181FF66C3BE016F5F7F4F4B01F701EB
:1009C0009381F10193FD859193FF81911F0188230C
:1009D00009F453C3853239F493FD859193FF8191D6
:1009E0001F01853239F4B70190E00E9409105601C9
:1009F0006501E5CF10E0512C20E02032A0F48B32CD
:100A000069F030F4803259F0833269F420612CC0EF
:100A10008D3239F0803339F4216026C022602460A1
:100A200023C0286021C027FD27C030ED380F3A30A1
:100A300078F426FF06C0FAE01F9F300D1124132F13
:100A400013C06AE0569E300D1124532E20620CC054
:100A50008E3221F426FD11C3206406C08C3611F4B9
:100A6000206802C0883641F4F10193FD859193FF1F
:100A700081911F018111C1CF9BEB980F933018F426
:100A80002061805E06C09BE9980F933008F0AAC1F0
:100A90002F7E26FF16E02F73722E853621F4F22F5B
:100AA000F0647F2E08C0863621F4622F6068762EAF
:100AB00002C01111115077FE07C01C3348F44424C2
:100AC0004394410E27E00BC0183030F4212F06C0AC
:100AD00027E04CE3442E03C027E017E0412C5601E9
:100AE00074E0A70EB11CF60160817181828193814F
:100AF000042DA4010E941B0F6C01098100FF02C09C
:100B000003FF06C071FC07C072FC08C0612C08C05E
:100B10003DE2632E05C02BE2622E02C090E2692EF8
:100B2000802F8C7099F1662011F084E001C083E081
:100B3000851510F0512C0BC0581A73FC08C0B70172
:100B400080E290E00E9409105A94C9F7F3CF662022
:100B500029F0B701862D90E00E94091003FD03C023
:100B600000EB10E002C00CEA10E0F72DF0717F2ED0
:100B7000F8018491882309F476C271108052B7017C
:100B800090E00E9409100F5F1F4FF2CF77FE0FC059
:100B90004C0C04FF04C08A81813309F44A94141474
:100BA00074F5F8E0F41578F588E0482E2CC076FC52
:100BB0002AC0812F90E08C159D059CF06CEFC61625
:100BC0006FEFD60674F0772D7068772E0AC0E2E0DA
:100BD000F0E0EC0FFD1FE10FF11D8081803319F46F
:100BE00011501111F4CF77FE0EC044244394410EEE
:100BF000812F90E0C816D9062CF41C1904C0442497
:100C0000439401C010E077FE07C01C141D043CF49F
:100C100096012F5F3F4F05C025E030E002C021E084
:100C200030E0662011F02F5F3F4F112331F0412F4C
:100C300050E04F5F5F4F240F351F452D50E02417C4
:100C4000350714F4521A01C0512C872D897049F4CC
:100C5000552039F0B70180E290E00E9409105A94C3
:100C6000F7CF662029F0B701862D90E00E94091089
:100C700073FC09C0552039F0B70180E390E00E9471
:100C800009105A94F7CF77FE5FC09C2D8D2DD7FEAB
:100C900002C090E080E0692E782E40E050E0C6016E
:100CA000841991099D878C87960126193709280D8B
:100CB000391D812F90E0EE27FF27E81BF90BFF87F6
:100CC000EE87FFEF6F167F0669F4B7018EE290E0C2
:100CD0002B8B3A8B488B598B0E9409105989488974
:100CE0003A892B89C614D70454F06C857D85661526
:100CF00077052CF4F901E40FF51F818101C080E331
:100D000071E0671A71084F5F5F4FEE85FF856E16C1
:100D10007F066CF0B70190E02B8B3A8B488B598B98
:100D20000E9409102B893A8948895989CACF6C14C5
:100D30007D0439F49A81963318F4953311F404FF45
:100D400081E3B70190E04BC08A81813309F00F7EC7
:100D5000B70190E00E940910111105C074FE18C07F
:100D600085E490E017C0B7018EE290E00E94091080
:100D700082E066246394680EF401E80FF11D80811F
:100D8000B70190E00E940910115041F3862DF1CF78
:100D900085E690E0B7010E940910D7FC05C0C11498
:100DA000D10439F404FF05C0D194C194D1088DE277
:100DB00001C08BE2B70190E00E94091080E36AE075
:100DC000C616D1042CF08F5FFAE0CF1AD108F7CF06
:100DD000B70190E00E940910B701C601C0960E94B9
:100DE000091041C1833631F0833779F0833509F03A
:100DF00058C021C0560172E0A70EB11CF6018081D7
:100E0000898301E010E0640114C05601F2E0AF0EE6
:100E1000B11CF601C080D18026FF03C0612F70E0B5
:100E200002C06FEF7FEFC6012B8B0E94FE0F8C017B
:100E30002B892F7715C05601F2E0AF0EB11CF601D9
:100E4000C080D18026FF03C0612F70E002C06FEF29
:100E50007FEFC6012B8B0E94F30F8C012B8920683A
:100E6000722E23FD1AC0852D90E008171907A8F4EB
:100E7000B70180E290E00E9409105A94F4CFF60185
:100E800077FC859177FE81916F01B70190E00E9418
:100E9000091051105A94015011090115110579F7E3
:100EA000E2C0843611F0893651F5560127FF09C09A
:100EB000F4E0AF0EB11CF6016081718182819381F3
:100EC0000AC0F2E0AF0EB11CF60160817181882783
:100ED00077FD8095982F022F0F7697FF08C0909589
:100EE0008095709561957F4F8F4F9F4F00682AE0E6
:100EF00030E0A4010E945D10C82EC8183EC0022F29
:100F0000853721F40F7E2AE030E01DC0097F8F363F
:100F100091F018F4883559F0B0C0803719F088374F
:100F200011F0ABC0006104FF09C0046007C024FFDA
:100F300008C0066006C028E030E005C020E130E0CF
:100F400002C020E132E0560107FF09C0F4E0AF0E15
:100F5000B11CF601608171818281938108C0F2E049
:100F6000AF0EB11CF6016081718180E090E0A401B8
:100F70000E945D10C82EC8180F7706FF0BC0202FE7
:100F80002E7FC11650F404FF0AC002FD08C0202FB6
:100F90002E7E05C0DC2C202F03C0DC2C01C0D12EFE
:100FA00024FF0DC0FE01EC0DF11D8081803311F492
:100FB000297E09C022FF06C0D394D39404C0822F97
:100FC000867809F0D39423FD13C020FF06C01C2DA2
:100FD000D51418F4150D1D19D52CD51468F4B701C6
:100FE00080E290E02B8B0E940910D3942B89F5CFDF
:100FF000D51410F45D1801C0512C24FF12C0B701A4
:1010000080E390E02B8B0E9409102B8922FF17C0F0
:1010100021FF03C088E590E002C088E790E0B701B7
:101020000CC0822F867859F021FD02C080E201C0F9
:101030008BE227FD8DE2B70190E00E940910C116F6
:1010400038F4B70180E390E00E9409101150F7CF07
:10105000CA94F401EC0DF11D8081B70190E00E946B
:101060000910C110F5CF552009F4C2CCB70180E2B8
:1010700090E00E9409105A94F6CFF701868197817B
:1010800002C08FEF9FEF6396E2E10C94EC0ECF93DA
:10109000DF9360E080E00E94AF0AC4EFD1E0699185
:1010A00081E00E94230A83E0CC3ED807C1F7DF919C
:1010B000CF910895E4EFF1E0119283E0EC3EF80760
:1010C000D9F70895843500F56033F0F4E62FE695FE
:1010D000E695E695677094E5E99FF001112490E0AC
:1010E000E80FF91FEC50FE4F81E090E0062E01C0A2
:1010F000880F0A94EAF7442319F09081982B03C0D3
:10110000809590819823908308952F923F924F92DB
:101110005F926F927F928F929F92AF92BF92CF9287
:10112000DF92EF92FF920F931F93CF93DF93CDB790
:10113000DEB72D970FB6F894DEBF0FBECDBFE82EF9
:10114000262ED42EF22E84131DC0C62ED12C022F93
:1011500010E02F1498F40C151D050CF4F5C041E0B7
:101160006C2D8E2D0E9462082F1420F42FEFC21ACE
:10117000D20AEFCF31E0C31AD108EBCFC016D106A7
:1011800074F7E2C0082F10E0842F90E09D878C87D1
:1011900062131BC0ED1498F4EC85FD85E017F10790
:1011A0000CF4D2C041E0622D802F0E946208ED1441
:1011B00018F40F5F1F4FEECF01501109EBCF2C85B4
:1011C0003D850217130774F7BFC06C857D85601BD2
:1011D000710B882777FD8095982F0E94320D2B0187
:1011E0003C018F2D90E09E838D83312CBC016219D0
:1011F0007309882777FD8095982F0E94320D4B0147
:101200005C01A30192010E94970C69837A838B830E
:101210009C8320E030E0A9010E94350E87FF0BC0BF
:10122000A3019201C501B40190580E94970C6983F3
:101230007A838B839C83C12CD12C760120E030E013
:10124000A901C301B2010E94350E18160CF076C038
:10125000EC85FD85E017F1070CF476C00B8741E0C3
:10126000622D802F0E94620829813A814B815C8126
:10127000C701B6010E941C0C6B017C0120E030E02C
:1012800040E05FE30E94350E87FF0DC020E030E0B4
:10129000A901C301B2010E94350E18160CF04BC013
:1012A0000F5F1F4FCBCF20E030E0A901C501B40193
:1012B0000E94350E1816CCF52D813E81221533057E
:1012C0002CF341E0622D8B850E946208E1E0F0E0A2
:1012D000F887EF8320E030E0A901C501B4010E9446
:1012E000350E181614F018861F8221E030E03A8778
:1012F000298720E030E0A901C501B4010E94930CC8
:1013000087FD02C01A8619868F819885E985FA853E
:101310008E1B9F0B280E391E20E030E040E85FE373
:10132000C701B6010E941B0CA7CF8D819E81281694
:1013300039063CF6ABCF0150110980CF2C853D8595
:10134000021713070CF08ACF2D960FB6F894DEBF64
:101350000FBECDBFDF91CF911F910F91FF90EF9006
:10136000DF90CF90BF90AF909F908F907F906F90C5
:101370005F904F903F902F9008957F928F929F9211
:10138000AF92BF92CF92DF92EF92FF920F931F9393
:10139000CF93DF93882E762E85E0489F700111242D
:1013A00000E010E0F701EC5EFF4F7F01AA24A39458
:1013B000B12C6701C00ED11EC0E0D0E0982C900E79
:1013C000F6012491A5010C2E02C0440F551F0A946A
:1013D000E2F730E0422353230C2E02C05595479587
:1013E0000A94E2F76C2F670D892D0E9462082196FE
:1013F000C830D10529F70F5F1F4F05301105C9F619
:10140000DF91CF911F910F91FF90EF90DF90CF90E0
:10141000BF90AF909F908F907F9008950F931F93F0
:10142000CF93DF93062FEA01182F4991442331F01F
:10143000602F812F0E94BD091B5FF7CFDF91CF91F5
:101440001F910F91089525B130E2839FC0011124AF
:101450002F7D282B25B95F9887E090E070E08F986A
:101460009B01082E02C0359527950A94E2F720FFCC
:1014700002C02E9A01C02E988F9A019780F75F9A2A
:101480000895CF93C82F579A249A259A269A879A17
:101490002C985F9A2C9A61E280E00E94230A6C2FBC
:1014A000606880E00E94230A64E080E00E94230AD2
:1014B00063E180E00E94230A6CE080E00E94230A3E
:1014C00060E280E00E94230A6CE080E00E94230A30
:1014D00060E480E00E94230A60E880E0CF910C94F1
:1014E000230ACF93DF93C8EFD1E060E081E00E9450
:1014F000230A21972097C9F7DF91CF9108950F9381
:101500001F93CF93DF93082F60E081E00E94230AAE
:1015100085E0089F80011124C0E0D0E00C501E4FF0
:10152000F801EC0FFD1F649181E00E94230A2196CF
:10153000C530D105A9F760E081E0DF91CF911F911F
:101540000F910C94230ACF93DF93EC0189918823A8
:1015500019F00E947F0AFACFDF91CF910895CF93BF
:10156000C82F606480E00E94230A6C2F606880E0CE
:10157000CF910C94230AAF92BF92CF92EF920F9328
:101580001F93FC014083518362837383048315831B
:1015900026833783E08AC18AB48AA38A81E0828B5A
:1015A000108611861286138614861586168617866F
:1015B0001F910F91EF90CF90BF90AF9008956F92D1
:1015C0007F929F92AF92BF92CF92DF92EF92FF9263
:1015D0000F931F93CF93DF9300D000D0CDB7DEB72A
:1015E0003C01DC0152968C915297882309F478C013
:1015F00050966C9170E080E090E00E94320D20E007
:1016000030E040E05EE30E94390E0E94800C0E94B0
:10161000040D962EA12CF3018189A81608F060C054
:10162000A99C60011124B12CEE24D7FCE094FE2C7F
:10163000D30150968C91B81608F050C00B2D10E0D5
:10164000B801882777FD8095982F0E94320D20E001
:1016500030E040E05EE30E94390E0E946D0D9B0178
:10166000AC01C701B60129833A834C835B830E9496
:10167000320D29813A814C815B810E941C0C0E94B1
:10168000FF0CD3015396ED91FC915497E60FF71F91
:10169000408150E0009510950770112702C05595C4
:1016A00047950A95E2F7417014966D917D918D9161
:1016B0009C9117974C830E94040D162F1A0DF3016D
:1016C00060817181828193810E94040D862F4C81FB
:1016D000612F8B0D0E946208B394AACFA3949BCF75
:1016E0000F900F900F900F90DF91CF911F910F915E
:1016F000FF90EF90DF90CF90BF90AF909F907F9042
:101700006F9008954F925F926F927F928F929F9207
:10171000AF92BF92CF92DF92EF92FF920F931F93FF
:10172000CF93DF9300D000D0CDB7DEB72C01662E6B
:10173000842EDC0152968C915297882309F466C05E
:1017400050966C9170E080E090E00E94320D20E0B5
:1017500030E040E05EE30E94390E0E94800C0E945F
:10176000040D762EB12CD20151968C91B81608F04A
:101770004DC0B79C60011124A12CEE24D7FCE0944D
:10178000FE2C9B2C980CF2018089A816E8F50A2DF6
:1017900010E0B801882777FD8095982F0E94320DC0
:1017A00020E030E040E05EE30E94390E0E946D0DC3
:1017B0009B01AC01C701B60129833A834B835C834B
:1017C0000E94320D29813A814B815C810E941C0C60
:1017D0000E94FF0CD2015396ED91FC915497E60FB5
:1017E000F71F408150E0009510950770112702C047
:1017F000559547950A95E2F74170692D8A2D860D1A
:101800000E946208A394BFCFB394ADCF0F900F9006
:101810000F900F90DF91CF911F910F91FF90EF905C
:10182000DF90CF90BF90AF909F908F907F906F9000
:101830005F904F9008955058BB27AA270ED0C4C17F
:10184000B5D130F0BAD120F031F49F3F11F41EF43D
:10185000AAC10EF4E095E7FB77C1E92FC6D180F36A
:10186000BA17620773078407950718F071F49EF59D
:10187000F5C10EF4E0950B2EBA2FA02D0B01B90186
:1018800090010C01CA01A0011124FF27591B99F0F6
:10189000593F50F4503E68F11A16F040A22F232F02
:1018A000342F4427585FF3CF469537952795A79552
:1018B000F0405395C9F77EF41F16BA0B620B730BF9
:1018C000840BBAF09150A1F0FF0FBB1F661F771F6A
:1018D000881FC2F70EC0BA0F621F731F841F48F41F
:1018E000879577956795B795F7959E3F08F0B3CFA5
:1018F0009395880F08F09927EE0F9795879508958F
:1019000096D180F09F3740F491110EF4A8C160E0A9
:1019100070E080E89FE3089526F01B16611D711D9D
:10192000811D18C132C1ECD008F481E008950CD0BB
:101930004BC143D140F03AD130F021F45F3F19F070
:1019400003C151118CC12FC150D198F39923C9F310
:101950005523B1F3951B550BBB27AA2762177307B5
:10196000840738F09F5F5F4F220F331F441FAA1F69
:10197000A9F333D00E2E3AF0E0E830D09150504029
:10198000E695001CCAF729D0FE2F27D0660F771FD7
:10199000881FBB1F261737074807AB07B0E809F0B9
:1019A000BB0B802DBF01FF2793585F4F2AF09E3F4E
:1019B000510568F0C9C053C15F3FECF3983EDCF3BA
:1019C000869577956795B795F7959F5FC9F7880FC7
:1019D000911D9695879597F90895E1E0660F771F19
:1019E000881FBB1F621773078407BA0720F0621BAA
:1019F000730B840BBA0BEE1F88F7E095089504D0A3
:101A00006894B1112CC10895F8D088F09F5790F0D8
:101A1000B92F9927B751A0F0D1F0660F771F881F13
:101A2000991F1AF0BA95C9F712C0B13081F016D1DA
:101A3000B1E0089513C1672F782F8827B85F39F078
:101A4000B93FCCF3869577956795B395D9F73EF472
:101A500090958095709561957F4F8F4F9F4F08951A
:101A6000E89409C097FB3EF4909580957095619538
:101A70007F4F8F4F9F4F9923A9F0F92F96E9BB27EE
:101A80009395F695879577956795B795F111F8CF6A
:101A9000FAF4BB0F11F460FF1BC06F5F7F4F8F4FD5
:101AA0009F4F16C0882311F096E911C0772321F0CB
:101AB0009EE8872F762F05C0662371F096E8862F63
:101AC00070E060E02AF09A95660F771F881FDAF7BA
:101AD000880F9695879597F90895A9D080F09F373C
:101AE00040F491110EF0BBC060E070E080E89FEB25
:101AF000089526F41B16611D711D811D2BC045C064
:101B0000990F0008550FAA0BE0E8FEEF161617060E
:101B1000E807F907C0F012161306E407F50798F076
:101B2000621B730B840B950B39F40A2661F0232B8F
:101B3000242B252B21F408950A2609F4A140A6950B
:101B40008FEF811D811D089597F99F6780E870E0F0
:101B500060E00895882371F4772321F09850872B53
:101B6000762F07C0662311F499270DC09051862B5C
:101B700070E060E02AF09A95660F771F881FDAF709
:101B8000880F9695879597F908959F3F31F091506A
:101B900020F4879577956795B795880F911D969551
:101BA000879597F908959FEF80EC089500240A9493
:101BB0001616170618060906089500240A94121628
:101BC0001306140605060895092E0394000C11F45B
:101BD000882352F0BB0F40F4BF2B11F460FF04C008
:101BE0006F5F7F4F8F4F9F4F089557FD9058440F61
:101BF000551F59F05F3F71F04795880F97FB991F6C
:101C000061F09F3F79F08795089512161306140628
:101C1000551FF2CF4695F1DF08C0161617061806B5
:101C2000991FF1CF86957105610508940895E5DF48
:101C3000A0F0BEE7B91788F4BB279F3860F41616EA
:101C4000B11D672F782F8827985FF7CF86957795F6
:101C50006795B11D93959639C8F30895E894BB270D
:101C600066277727CB0197F908954ADF08F48FEFAD
:101C700008950BD0A9CF9ADF28F09FDF18F09523A5
:101C800009F062CF90CF1124EACFAFDFA0F3959F88
:101C9000D1F3950F50E0551F629FF001729FBB2753
:101CA000F00DB11D639FAA27F00DB11DAA1F649FFF
:101CB0006627B00DA11D661F829F2227B00DA11DB2
:101CC000621F739FB00DA11D621F839FA00D611D38
:101CD000221F749F3327A00D611D231F849F600D59
:101CE000211D822F762F6A2F11249F5750408AF092
:101CF000E1F088234AF0EE0FFF1FBB1F661F771F1E
:101D0000881F91505040A9F79E3F510570F01CCF9D
:101D1000A6CF5F3FECF3983EDCF386957795679509
:101D2000B795F795E7959F5FC1F7FE2B880F911D3B
:101D30009695879597F9089560DFE0F09E37D8F083
:101D40009639B8F49E3848F4672F782F8827985F23
:101D5000F9CF86957795679593959539D0F3B62FFA
:101D6000B1706B0F711D811D20F487957795679574
:101D70009395F0CE0ACF73CF97FB072E16F40094FD
:101D800007D077FD09D00E94070F07FC05D03EF46D
:101D9000909581959F4F0895709561957F4F089517
:101DA0002F923F924F925F926F927F928F929F926B
:101DB000AF92BF92CF92DF92EF92FF920F931F9359
:101DC000CF93DF93CDB7DEB7CA1BDB0B0FB6F8940A
:101DD000DEBF0FBECDBF09942A88398848885F844A
:101DE0006E847D848C849B84AA84B984C884DF80BB
:101DF000EE80FD800C811B81AA81B981CE0FD11D9F
:101E00000FB6F894DEBF0FBECDBFED010895AA1B3B
:101E1000BB1B51E107C0AA1FBB1FA617B70710F0D5
:101E2000A61BB70B881F991F5A95A9F78095909507
:101E3000BC01CD010895283008F027E03327DA01EE
:101E4000990F311D87FD916000966105710539F488
:101E500032602E5F3D9330E32A95E1F708959F3F6E
:101E600030F080387105610509F03C5F3C5F3D93BF
:101E7000913008F08068911DDF93CF931F930F93EB
:101E8000FF92EF92192F987F9695E92F9695969548
:101E9000E90FFF27E253FB4F99273327EE24FF2456
:101EA000A701E70105900894079428F4360FE71E70
:101EB000F81E491F511D660F771F881F991F069432
:101EC000A1F70590079428F4E70EF81E491F561F46
:101ED000C11D770F881F991F661F0694A1F70590F3
:101EE000079428F4F80E491F561FC71FD11D880FED
:101EF000991F661F771F0694A1F70590079420F499
:101F0000490F561FC71FD81F990F661F771F881FBD
:101F10000694A9F784911095177041F0D695C7954E
:101F200057954795F794E7941A95C1F7E4E7F4E0DD
:101F300068941590159135916591959105907FE282
:101F40007395E118F10A430B560BC90BD009C0F782
:101F5000E10CF11E431F561FC91FD01D7EF47033C4
:101F600011F48A95E6CFE894015030F0080F0AF496
:101F70000027021708F4202F2395022F7A3328F028
:101F800079E37D932A95E9F710C07D932A9589F628
:101F9000069497956795379517951794E118F10A68
:101FA000430B560BC90BD00998F023957E9173957E
:101FB0007A3308F070E37C932013B8F77E91706158
:101FC0007D9330F0839571E37D9370E32A95E1F77B
:101FD0001124EF90FF900F911F91CF91DF919927DE
:101FE00087FD90950895FC010590615070400110A7
:101FF000D8F7809590958E0F9F1F0895FC01615032
:10200000704001900110D8F7809590958E0F9F1F1A
:1020100008950F931F93CF93DF93182F092FEB0190
:102020008B8181FD03C08FEF9FEF20C082FF10C026
:102030004E815F812C813D81421753077CF4E881FA
:10204000F9819F012F5F3F4F39832883108306C09A
:10205000E885F985812F0995892B29F72E813F8104
:102060002F5F3F4F3F832E83812F902FDF91CF91A2
:102070001F910F910895AEE0B0E0E1E4F0E10C941F
:10208000DE0E0D891E8986E08C831A8309838FEF0B
:102090009FE79E838D83AE01475E5F4F6F89788D8A
:1020A000CE0101960E94CC04EF81F885E00FF11F6C
:1020B00010822E96E4E00C94FA0EFA01AA2728303A
:1020C00051F1203181F1E8946F936E7F6E5F7F4F05
:1020D0008F4F9F4FAF4FB1E03ED0B4E03CD0670F81
:1020E000781F891F9A1FA11D680F791F8A1F911DD4
:1020F000A11D6A0F711D811D911DA11D20D009F424
:1021000068943F912AE0269F11243019305D319365
:10211000DEF6CF010895462F4770405D4193B3E04E
:102120000FD0C9F7F6CF462F4F70405D4A3318F0F5
:10213000495D31FD4052419302D0A9F7EACFB4E0A6
:10214000A6959795879577956795BA95C9F700975E
:102150006105710508959B01AC010A2E06945795FF
:10216000479537952795BA95C9F7620F731F841F56
:0A217000951FA01D0895F894FFCFFD
:10217A0007E0181820044002581A981980018001B3
:10218A0090099009881147E240022004181807E0D4
:10219A0007E0181820044002581A98198001800193
:1021AA0080018FF1B00D400240022004181807E0A8
:1021BA0007E0181820044002581A98198001800173
:1021CA0087E188119009500A40022004181807E094
:1021DA0000888888F88888885468616E617400432A
:1021EA00686F6B77696A69746B756C006E39323324
:1021FA003439303000507265737320616E79206211
:10220A007574746F6E004C6576656C20310042619E
:10221A00736963004C6566743A20506C61790052A8
:10222A00696768743A20536B6970004C3A002564F8
:10223A00002C20533A004C6576656C203200506FB2
:10224A0074656E74696F6D6574657273004C65763A
:10225A00656C20330053657269616C20506F72742B
:02226A00000072
:00000001FF
