:100000000C94B7020C94D4020C94D4020C94D40235
:100010000C94D4020C94D4020C94D4020C94D40208
:100020000C94D4020C94D4020C94D4020C94D402F8
:100030000C94D4020C94D4020C94D4020C94D402E8
:100040000C94D4020C94D4020C94D4020C94D402D8
:100050000C9413070C94D4020C94D4020C94D40284
:100060000C94D4020C94D4020C94D4020C94D402B8
:100070000C94D4020C94D4020C94D4020C94D402A8
:100080000C94D4020C94D4020C94D4020C94D40298
:100090000C94D4020C94D4020C94D4020C94D40288
:1000A0000C94D4020C94D4020C94D4026E616E00B1
:1000B000696E6600000000000000005F000000079D
:1000C000000700147F147F14242A7F2A12231308A8
:1000D000646236495522500005030000001C22418D
:1000E000000041221C0014083E081408083E0808BD
:1000F0000050300000080808080800606000002078
:10010000100804023E5149453E00427F40004261D2
:100110005149462141454B311814127F102745455E
:1001200045393C4A49493001710905033649494975
:1001300036064949291E00363600000056360000B2
:10014000081422410014141414140041221408024B
:1001500001510906324979413E7E1111117E7F49D4
:100160004949363E414141227F4141221C7F494954
:1001700049417F090909013E4149497A7F08080838
:100180007F00417F41002040413F017F0814224110
:100190007F404040407F020C027F7F0408107F3E7A
:1001A0004141413E7F090909063E4151215E7F09D7
:1001B000192946464949493101017F01013F404023
:1001C000403F1F2040201F3F4038403F6314081429
:1001D0006307087008076151494543007F414100AA
:1001E00002040810200041417F0004020102044083
:1001F00040404040000102040020545454787F489D
:100200004444383844444420384444487F385454A3
:100210005418087E0901020C5252523E7F08040411
:100220007800447D40002040443D007F1028440079
:1002300000417F40007C041804787C08040478386E
:10024000444444387C14141408081414187C7C08A2
:100250000404084854545420043F4440203C404087
:10026000207C1C2040201C3C4030403C442810286E
:10027000440C5050503C4464544C440008364100F7
:1002800000007F00000041360800100808100878C0
:1002900046414678000000000000005F00000007B3
:1002A000000700147F147F14242A7F2A12231308C6
:1002B000646236495522500005030000001C2241AB
:1002C000000041221C0014083E081408083E0808DB
:1002D0000050300000080808080800606000002096
:1002E000100804023E5149453E00427F40004261F1
:1002F0005149462141454B311814127F102745457D
:1003000045393C4A49493001710905033649494993
:1003100036064949291E00363600000056360000D0
:100320000814224100141414141400412214080269
:1003300001510906324979413E7E1111117E7F49F2
:100340004949363E414141227F4141221C7F494972
:1003500049417F090909013E4149497A7F08080856
:100360007F00417F41002040413F017F081422412E
:100370007F404040407F020C027F7F0408107F3E98
:100380004141413E7F090909063E4151215E7F09F5
:10039000192946464949493101017F01013F404041
:1003A000403F1F2040201F3F4038403F6314081447
:1003B0006307087008076151494543007F414100C8
:1003C00002040810200041417F00040201020440A1
:1003D00040404040000102040020545454787F48BB
:1003E0004444383844444420384444487F385454C2
:1003F0005418087E0901020C5252523E7F08040430
:100400007800447D40002040443D007F1028440097
:1004100000417F40007C041804787C08040478388C
:10042000444444387C14141408081414187C7C08C0
:100430000404084854545420043F4440203C4040A5
:10044000207C1C2040201C3C4030403C442810288C
:10045000440C5050503C4464544C44000836410015
:1004600000007F00000041360800100808100878DE
:100470004641467800407A10F35A00A0724E18099F
:100480000010A5D4E80000E87648170000E40B54FB
:10049000020000CA9A3B000000E1F50500008096CA
:1004A0009800000040420F000000A08601000000FC
:1004B000102700000000E8030000000064000000B6
:1004C00000000A00000000000100000000002C767F
:1004D000D888DC674F0823DFC1DFAE59E1B1B7969A
:1004E000E5E3E453C63AE651997696E8E6C28426F7
:1004F000EB898C9B62ED407C6FFCEFBC9C9F40F2D3
:10050000BAA56FA5F490055A2AF75C936B6CF9674E
:100510006DC11BFCE0E40D47FEF520E6B500D0ED13
:10052000902E0300943577050080841E080000207B
:100530004E0A000000C80C333333330F986E128319
:100540001141EF8D2114893BE65516CFFEE6DB18ED
:10055000D1844B381BF77C1D901DA4BBE4242032B2
:1005600084725E228100C9F124ECA1E53D271124AB
:100570001FBECFEFDAE0DEBFCDBF11E0A0E0B1E0FB
:10058000E6E4FAE202C005900D92A83FB107D9F760
:1005900024E0A8EFB1E001C01D92AE34B207E1F74C
:1005A0000E947E070C9421150C9400008FE30E949A
:1005B000E60D84B18C7F84B9E1E8F0E08081877F2B
:1005C000808380818360808380818B7F808381E0D2
:1005D00080936F00EAE7F0E0808187608083ACE77A
:1005E000B0E08C9180628C938C9180648C9380813C
:1005F00080688083789480818064808308954EE64B
:1006000051E060E080E00E94B30D45E751E068E012
:1006100080E00E94B30D42E851E060E180E00E947A
:10062000B30D4BE851E060E280E00C94B30D23B1D0
:10063000217080910102281741F02093010281E08E
:1006400090E0222321F080E0089580E090E008957A
:1006500023B1227080910002281741F020930002FC
:1006600081E090E0222321F080E0089580E090E096
:1006700008950E941703892B51F40E94280331E04A
:1006800020E0892B09F430E0832F922F089581E038
:1006900090E00895CF93DF93EC010E942803892B0B
:1006A00039F0CE01019663E070E00E946112EC0126
:1006B000CE01DF91CF910895CF92DF92FF920F93F9
:1006C0001F93CF93DF931F92CDB7DEB7F82E6B0148
:1006D0008A014CE951E060E080E099830E94B30D0B
:1006E00099819F93FF9282EA91E09F938F931F934A
:1006F0000F930E943E14A80160E08CE10E94B30DAC
:10070000A60168E080E00E94B30D45EA51E068E18F
:1007100080E00E94B30D0F900F900F900F900F90FC
:100720000F9040EB51E060E280E00F90DF91CF91BD
:100730001F910F91FF90DF90CF900C94B30D0F930A
:100740001F93CF93DF938C014CEB51E060E080E08E
:100750000E94B30D809101018F93809100018F93CE
:10076000C2EAD1E0DF93CF931F930F930E943E1410
:10077000A80160E08CE00E94B30D4FEB51E060E017
:1007800081E10E94B30D8091FD018F938091FC0166
:100790008F93DF93CF931F930F930E943E14A80172
:1007A00060E088E20E94B30D8DB79EB70C960FB63D
:1007B000F8949EBF0FBE8DBF28E044E568E080E05E
:1007C000DF91CF911F910F910C942A0C81E090E062
:1007D0009093FF018093FE0183E090E090930101EC
:1007E000809300011092FD011092FC011092FB0118
:1007F0001092FA011092F9011092F80180E090E055
:10080000A0E2B1E480931B0290931C02A0931D020E
:10081000B0931E028093300290933102A093320273
:10082000B09333028093450290934602A09347020F
:10083000B0934802089582E092E00C94840ECF9326
:10084000DF93C7E1D2E020E030E040E251E46C8188
:100850007D818E819F810E94DA1187FD03C0CE01C8
:100860000E94840E659682E0C635D80761F7DF9155
:10087000CF9108958F929F92AF92BF92CF92DF92C5
:10088000EF92FF920E941B04C0900202D0900302DC
:10089000E0900402F090050220E030E040E85FE3E1
:1008A000C701B6010E94C00F0E9441124B015C01BA
:1008B00020E030E040EA50E4C701B6010E94C10FD9
:1008C0000E9441126B017C010E941703892B31F1B8
:1008D00020E030E040E450E46091020270910302B5
:1008E00080910402909105020E94C00F6093020261
:1008F000709303028093040290930502C501B40132
:100900000E94A41016161706B4F11092020210925B
:10091000030210920402109205022DC00E942803C7
:10092000892B49F120E030E040E450E4609102027C
:100930007091030280910402909105020E94C10F00
:100940006093020270930302809304029093050265
:10095000C701B6010E94A4106335710564F080E000
:1009600090E0AEE9B2E48093020290930302A09378
:100970000402B0930502FF90EF90DF90CF90BF90FC
:10098000AF909F908F9008950E941B046091790012
:1009900070E080E090E00E94D7102DEC3CEC4CE43D
:1009A00050E40E943C100E9412119B01AC0160E0D7
:1009B00070E08EE992E40E94C00F6093020270938F
:1009C00003028093040290930502EAE7F0E080813D
:1009D0008064808308952F923F924F925F926F922E
:1009E0007F928F929F92AF92BF92CF92DF92EF92BF
:1009F000FF920F931F93CF93DF9300D000D0CDB71A
:100A0000DEB74090020250900302609004027090A2
:100A1000050220E030E040E850E4C301B2010E944A
:100A2000C10F69837A838B839C83C0900602D09028
:100A30000702E0900802F090090287E1282E82E088
:100A4000382E00E010E0F10180809180A280B38018
:100A5000A501940169817A818B819C810E94DA11C0
:100A600087FD33C020E030E040E751E4C501B40128
:100A70000E94C10F9B01AC01C301B2010E9438105A
:100A800018161CF1F10184809580A680B78020E0C3
:100A900030E040EE50E4C701B6010E94C10FA5014D
:100AA00094010E94DA1187FD10C020E030E040E799
:100AB00051E4C501B4010E94C10F9B01AC01C70103
:100AC000B6010E943810181664F40F5F1F4FF5E14D
:100AD0002F0E311C0330110509F0B5CF8FEF9FEFBA
:100AE00001C0C8010F900F900F900F90DF91CF9130
:100AF0001F910F91FF90EF90DF90CF90BF90AF903C
:100B00009F908F907F906F905F904F903F902F902D
:100B100008958091FA019091FB01892BA1F50E9423
:100B2000EB0497FD30C08130910579F0823091055A
:100B3000D9F0892B11F58091FC019091FD0102966D
:100B40009093FD018093FC0118C08091F801909171
:100B5000F90101968230910514F082E090E09093C3
:100B6000F9018093F80109C0809100019091010181
:100B70000197909301018093000181E090E09093B0
:100B8000FB018093FA010895FB01208131814281AC
:100B90005381FC0160817181828193810E94C00F29
:100BA0000E94A4106B5E7F4F81E090E06B32710574
:100BB00010F080E090E008958F929F92AF92BF92E4
:100BC000CF92DF92EF92FF920F931F93CF93DF9319
:100BD000C7E1D2E002E410E0C12CD12CE12C91E479
:100BE000F92E812C912C20EEA22E20E4B22E20E0B2
:100BF00030E040E751E46C817D818E819F810E94CD
:100C0000C10F0E9441120E94A4106033710524F1AB
:100C10008091F8019091F9010197029728F48C8254
:100C20009D82AE82BF8204C0CC82DD82EE82FF82D2
:100C30000E940E13B8010E946112BC01882777FD43
:100C40008095982F0E94D710688379838A839B832D
:100C50001092FB011092FA01659682E0C635D80722
:100C600031F6DF91CF911F910F91FF90EF90DF90C0
:100C7000CF90BF90AF909F908F9008952F923F920A
:100C80004F925F926F927F928F929F92AF92BF929C
:100C9000CF92DF92EF92FF920F931F93CF93DF9348
:100CA00037E1832E32E0932EC1E0D0E043E0242EE2
:100CB000312C52E4A52EB12CC12CD12CE12C61E4B5
:100CC000F62E412C512C70EE672E70E4772ECE015B
:100CD000B1010E94611225E1289F8001299F100D1A
:100CE0001124095E1D4FB801C4010E94C405892B5F
:100CF00019F10E940E13B5010E946112BC018827F0
:100D000077FD8095982F0E94D710F401608371833E
:100D1000828393838091F8019091F9010197029762
:100D200028F44482558266827782DDCFF401C48242
:100D3000D582E682F782D7CF2196F5E18F0E911CFE
:100D4000C430D10521F6DF91CF911F910F91FF9013
:100D5000EF90DF90CF90BF90AF909F908F907F905B
:100D60006F905F904F903F902F9008950E941F04C6
:100D70000E94DC050E943E060C9489058091F801D2
:100D80009091F9018130910541F480918400909116
:100D90008500883C9F4A80F009C0029769F48091E1
:100DA0008400909185008033954730F08FEF9FEF5E
:100DB000909385008093840008950E94FF0B80919A
:100DC000FC019091FD01449799F444EC51E064E1F9
:100DD00086E10E94B30D0E94EC0B2FEF8DE399E4A6
:100DE000215080409040E1F700C0000081E018C031
:100DF0008091000190910101892BA1F44DEC51E00B
:100E000064E186E10E94B30D0E94EC0B2FEF8DE3AD
:100E100099E4215080409040E1F700C0000080E05C
:100E200090E0089508951F920F920FB60F9211242B
:100E30002F933F934F935F936F937F938F939F93E2
:100E4000AF93BF93EF93FF938091FE019091FF01C9
:100E5000892B09F442C020E030E040E050E460918A
:100E60001B0270911C0280911D0290911E020E9433
:100E7000C10F60931B0270931C0280931D0290931C
:100E80001E0220E030E040E050E4609130027091BA
:100E9000310280913202909133020E94C10F60931F
:100EA000300270933102809332029093330220E03B
:100EB00030E040E050E4609145027091460280913C
:100EC0004702909148020E94C10F609345027093BF
:100ED00046028093470290934802FF91EF91BF91A1
:100EE000AF919F918F917F916F915F914F913F91C2
:100EF0002F910F900FBE0F901F901895CF93DF93F7
:100F0000CDB7DEB7C055D1090FB6F894DEBF0FBE1E
:100F1000CDBFE2E6AE2EE1E0BE2EF8E0CF2EA8E097
:100F2000EA2E00E010E020E232E440E050E06CE124
:100F300072E482E092E00E94600EB2E0AB2EB1E07B
:100F4000BB2E10E1C12E00E1E02E00E010E020E217
:100F500031E4B901A80187E192E00E94600E82E2CB
:100F6000A82E81E0B82E00E010E020E231E440E05D
:100F700050E064E072E48CE292E00E94600E92E441
:100F8000A92E91E0B92E00E010E020E231E440E02B
:100F900050E060E672E481E492E00E94600E80E836
:100FA0008093610081E0809361000E94D6020E94DC
:100FB000FF0B0E94FF020E94EC0B0E943903892B59
:100FC000B1F300E010E00E94FF0BC8010E944A0349
:100FD0008C0101151105E9F50E94FF0BAE014F5F71
:100FE0005F4F67ED71E081E090E00E945C0380E07C
:100FF00090E00E944A038C010E941703892B09F19B
:101000000E94E603809100019091010118161906D3
:10101000ACF48091FC019091FD0144977CF40E9416
:10102000FF0BCE0101960E949F030E943A040E948A
:10103000B6060E94BE060E94EC0BE4CF0E94DD06BD
:101040008C010E94EC0BC5CF0E94DD068C010E9432
:10105000EC0B0130110561F50E94FF0BAE014F5FF3
:101060005F4F6DED71E082E090E00E945C0381E0F3
:1010700090E00E944A038C010E941703892B39F3E8
:101080000E94E60380910001909101011816190653
:10109000DCF60E94FF0BCE0101960E949F030E9486
:1010A000C4040E94B6060E94BE060E94EC0BEACF62
:1010B0000230110599F40E94FF0BAE014F5F5F4FA4
:1010C0006CEE71E083E090E00E945C0382E090E0CF
:1010D0000E944A038C010E94EC0BEACF0E94EC0BA9
:1010E00072CFA3E1B0E0E7E7F8E00C9475127C0161
:1010F0001B016A01FC0117821682838181FF66C38E
:10110000BE016F5F7F4F4B01F7019381F10193FDAA
:10111000859193FF81911F01882309F453C3853280
:1011200039F493FD859193FF81911F01853239F444
:10113000B70190E00E940C1456016501E5CF10E064
:10114000512C20E02032A0F48B3269F030F4803250
:1011500059F0833269F420612CC08D3239F080332C
:1011600039F4216026C02260246023C0286021C099
:1011700027FD27C030ED380F3A3078F426FF06C03F
:10118000FAE01F9F300D1124132F13C06AE0569E02
:10119000300D1124532E20620CC08E3221F426FD16
:1011A00011C3206406C08C3611F4206802C0883652
:1011B00041F4F10193FD859193FF81911F0181110C
:1011C000C1CF9BEB980F933018F42061805E06C06E
:1011D0009BE9980F933008F0AAC12F7E26FF16E0F6
:1011E0002F73722E853621F4F22FF0647F2E08C003
:1011F000863621F4622F6068762E02C011111150DC
:1012000077FE07C01C3348F444244394410E27E082
:101210000BC0183030F4212F06C027E04CE3442ED9
:1012200003C027E017E0412C560174E0A70EB11C63
:10123000F6016081718182819381042DA4010E9455
:101240001E136C01098100FF02C003FF06C071FC80
:1012500007C072FC08C0612C08C03DE2632E05C0C7
:101260002BE2622E02C090E2692E802F8C7099F1E1
:10127000662011F084E001C083E0851510F0512C48
:101280000BC0581A73FC08C0B70180E290E00E94BE
:101290000C145A94C9F7F3CF662029F0B701862DB4
:1012A00090E00E940C1403FD03C000EB10E002C0AC
:1012B0000CEA10E0F72DF0717F2EF801849188235D
:1012C00009F476C271108052B70190E00E940C14AC
:1012D0000F5F1F4FF2CF77FE0FC04C0C04FF04C00E
:1012E0008A81813309F44A94141474F5F8E0F415F2
:1012F00078F588E0482E2CC076FC2AC0812F90E03B
:101300008C159D059CF06CEFC6166FEFD60674F039
:10131000772D7068772E0AC0E2E0F0E0EC0FFD1F39
:10132000E10FF11D8081803319F411501111F4CFB8
:1013300077FE0EC044244394410E812F90E0C816DE
:10134000D9062CF41C1904C04424439401C010E0B5
:1013500077FE07C01C141D043CF496012F5F3F4F1D
:1013600005C025E030E002C021E030E0662011F049
:101370002F5F3F4F112331F0412F50E04F5F5F4F00
:10138000240F351F452D50E02417350714F4521A49
:1013900001C0512C872D897049F4552039F0B701CF
:1013A00080E290E00E940C145A94F7CF662029F056
:1013B000B701862D90E00E940C1473FC09C05520E3
:1013C00039F0B70180E390E00E940C145A94F7CFF3
:1013D00077FE5FC09C2D8D2DD7FE02C090E080E08F
:1013E000692E782E40E050E0C601841991099D874E
:1013F0008C87960126193709280D391D812F90E019
:10140000EE27FF27E81BF90BFF87EE87FFEF6F162C
:101410007F0669F4B7018EE290E02B8B3A8B488B04
:10142000598B0E940C14598948893A892B89C61412
:10143000D70454F06C857D85661577052CF4F90189
:10144000E40FF51F818101C080E371E0671A710824
:101450004F5F5F4FEE85FF856E167F066CF0B7011C
:1014600090E02B8B3A8B488B598B0E940C142B8964
:101470003A8948895989CACF6C147D0439F49A8114
:10148000963318F4953311F404FF81E3B70190E02B
:101490004BC08A81813309F00F7EB70190E00E9432
:1014A0000C14111105C074FE18C085E490E017C03B
:1014B000B7018EE290E00E940C1482E066246394EF
:1014C000680EF401E80FF11D8081B70190E00E94E1
:1014D0000C14115041F3862DF1CF85E690E0B70151
:1014E0000E940C14D7FC05C0C114D10439F404FFC8
:1014F00005C0D194C194D1088DE201C08BE2B7013F
:1015000090E00E940C1480E36AE0C616D1042CF02F
:101510008F5FFAE0CF1AD108F7CFB70190E00E94B1
:101520000C14B701C601C0960E940C1441C1833649
:1015300031F0833779F0833509F058C021C0560166
:1015400072E0A70EB11CF6018081898301E010E0F2
:10155000640114C05601F2E0AF0EB11CF601C08068
:10156000D18026FF03C0612F70E002C06FEF7FEFD4
:10157000C6012B8B0E9401148C012B892F7715C07B
:101580005601F2E0AF0EB11CF601C080D18026FFFB
:1015900003C0612F70E002C06FEF7FEFC6012B8B9D
:1015A0000E94F6138C012B892068722E23FD1AC02D
:1015B000852D90E008171907A8F4B70180E290E0A4
:1015C0000E940C145A94F4CFF60177FC859177FEB3
:1015D00081916F01B70190E00E940C1451105A9450
:1015E000015011090115110579F7E2C0843611F097
:1015F000893651F5560127FF09C0F4E0AF0EB11C42
:10160000F60160817181828193810AC0F2E0AF0EA0
:10161000B11CF60160817181882777FD8095982F34
:10162000022F0F7697FF08C0909580957095619571
:101630007F4F8F4F9F4F00682AE030E0A4010E9447
:101640006014C82EC8183EC0022F853721F40F7EC3
:101650002AE030E01DC0097F8F3691F018F48835FC
:1016600059F0B0C0803719F0883711F0ABC0006175
:1016700004FF09C0046007C024FF08C0066006C05C
:1016800028E030E005C020E130E002C020E132E097
:10169000560107FF09C0F4E0AF0EB11CF6016081EE
:1016A00071818281938108C0F2E0AF0EB11CF60116
:1016B0006081718180E090E0A4010E946014C82ED6
:1016C000C8180F7706FF0BC0202F2E7FC11650F4CD
:1016D00004FF0AC002FD08C0202F2E7E05C0DC2CAE
:1016E000202F03C0DC2C01C0D12E24FF0DC0FE0131
:1016F000EC0DF11D8081803311F4297E09C022FF99
:1017000006C0D394D39404C0822F867809F0D39472
:1017100023FD13C020FF06C01C2DD51418F4150D91
:101720001D19D52CD51468F4B70180E290E02B8BFD
:101730000E940C14D3942B89F5CFD51410F45D18A6
:1017400001C0512C24FF12C0B70180E390E02B8B25
:101750000E940C142B8922FF17C021FF03C088E5CB
:1017600090E002C088E790E0B7010CC0822F867835
:1017700059F021FD02C080E201C08BE227FD8DE21D
:10178000B70190E00E940C14C11638F4B70180E351
:1017900090E00E940C141150F7CFCA94F401EC0DA4
:1017A000F11D8081B70190E00E940C14C110F5CFAB
:1017B000552009F4C2CCB70180E290E00E940C14DD
:1017C0005A94F6CFF7018681978102C08FEF9FEF81
:1017D0006396E2E10C949112CF93DF9360E080E096
:1017E0000E94540EC6E5D2E0699181E00E94C80DC6
:1017F00084E0CE34D807C1F7DF91CF910895E6E5B4
:10180000F2E0119284E0EE34F807D9F708958435B8
:1018100000F56033F0F4E62FE695E695E6956770FF
:1018200094E5E99FF001112490E0E80FF91FEA5ACE
:10183000FD4F81E090E0062E01C0880F0A94EAF780
:10184000442319F09081982B03C0809590819823B0
:10185000908308952F923F924F925F926F927F9262
:101860008F929F92AF92BF92CF92DF92EF92FF92B0
:101870000F931F93CF93DF93CDB7DEB72D970FB69E
:10188000F894DEBF0FBECDBFE82E262ED42EF22E4A
:1018900084131DC0C62ED12C022F10E02F1498F4F3
:1018A0000C151D050CF4F5C041E06C2D8E2D0E9429
:1018B000070C2F1420F42FEFC21AD20AEFCF31E019
:1018C000C31AD108EBCFC016D10674F7E2C0082FB7
:1018D00010E0842F90E09D878C8762131BC0ED146D
:1018E00098F4EC85FD85E017F1070CF4D2C041E0D7
:1018F000622D802F0E94070CED1418F40F5F1F4F0C
:10190000EECF01501109EBCF2C853D85021713074F
:1019100074F7BFC06C857D85601B710B882777FDD0
:101920008095982F0E94D7102B013C018F2D90E0BD
:101930009E838D83312CBC0162197309882777FD42
:101940008095982F0E94D7104B015C01A301920152
:101950000E943C1069837A838B839C8320E030E073
:10196000A9010E94DA1187FF0BC0A3019201C501F2
:10197000B40190580E943C1069837A838B839C83C6
:10198000C12CD12C760120E030E0A901C301B201C5
:101990000E94DA1118160CF076C0EC85FD85E01770
:1019A000F1070CF476C00B8741E0622D802F0E9476
:1019B000070C29813A814B815C81C701B6010E94E5
:1019C000C10F6B017C0120E030E040E05FE30E944A
:1019D000DA1187FF0DC020E030E0A901C301B20198
:1019E0000E94DA1118160CF04BC00F5F1F4FCBCFBF
:1019F00020E030E0A901C501B4010E94DA111816F7
:101A0000CCF52D813E81221533052CF341E0622D6A
:101A10008B850E94070CE1E0F0E0F887EF8320E07F
:101A200030E0A901C501B4010E94DA11181614F0C2
:101A300018861F8221E030E03A87298720E030E0D5
:101A4000A901C501B4010E94381087FD02C01A86A1
:101A500019868F819885E985FA858E1B9F0B280E44
:101A6000391E20E030E040E85FE3C701B6010E9484
:101A7000C00FA7CF8D819E81281639063CF6ABCFCB
:101A80000150110980CF2C853D85021713070CF0FA
:101A90008ACF2D960FB6F894DEBF0FBECDBFDF9173
:101AA000CF911F910F91FF90EF90DF90CF90BF905B
:101AB000AF909F908F907F906F905F904F903F90EE
:101AC0002F9008957F928F929F92AF92BF92CF9264
:101AD000DF92EF92FF920F931F93CF93DF93882EA5
:101AE000762E85E0489F7001112400E010E0F70198
:101AF000EC5EFF4F7F01AA24A394B12C6701C00EB6
:101B0000D11EC0E0D0E0982C900EF6012491A501E2
:101B10000C2E02C0440F551F0A94E2F730E0422316
:101B200053230C2E02C0559547950A94E2F76C2F6B
:101B3000670D892D0E94070C2196C830D10529F721
:101B40000F5F1F4F05301105C9F6DF91CF911F912F
:101B50000F91FF90EF90DF90CF90BF90AF909F904C
:101B60008F907F9008950F931F93CF93DF93062F4D
:101B7000EA01182F4991442331F0602F812F0E94F0
:101B8000620D1B5FF7CFDF91CF911F910F910895E9
:101B900025B130E2839FC00111242F7D282B25B968
:101BA0005F9887E090E070E08F989B01082E02C05C
:101BB000359527950A94E2F720FF02C02E9A01C0BE
:101BC0002E988F9A019780F75F9A0895CF93C82F28
:101BD000579A249A259A269A879A2C985F9A2C9A33
:101BE00061E280E00E94C80D6C2F606880E00E9476
:101BF000C80D64E080E00E94C80D63E180E00E94AF
:101C0000C80D6CE080E00E94C80D60E280E00E9498
:101C1000C80D6CE080E00E94C80D60E480E00E9486
:101C2000C80D60E880E0CF910C94C80DCF93DF938E
:101C3000C8EFD1E060E081E00E94C80D21972097B5
:101C4000C9F7DF91CF9108950F931F93CF93DF933F
:101C5000082F60E081E00E94C80D85E0089F8001A8
:101C60001124C0E0D0E00C501E4FF801EC0FFD1F16
:101C7000649181E00E94C80D2196C530D105A9F775
:101C800060E081E0DF91CF911F910F910C94C80D1E
:101C9000CF93DF93EC018991882319F00E94240EE1
:101CA000FACFDF91CF910895CF93C82F606480E081
:101CB0000E94C80D6C2F606880E0CF910C94C80D15
:101CC000AF92BF92CF92EF920F931F93FC0140838C
:101CD0005183628373830483158326833783E08A69
:101CE000C18AB48AA38A81E0828B1086118612860B
:101CF000138614861586168617861F910F91EF900E
:101D0000CF90BF90AF9008956F927F929F92AF92C5
:101D1000BF92CF92DF92EF92FF920F931F93CF93D8
:101D2000DF9300D000D0CDB7DEB73C01DC01529686
:101D30008C915297882309F478C050966C9170E08A
:101D400080E090E00E94D71020E030E040E05EE3C9
:101D50000E94DE110E9425100E94A910962EA12C2F
:101D6000F3018189A81608F060C0A99C60011124C4
:101D7000B12CEE24D7FCE094FE2CD30150968C912C
:101D8000B81608F050C00B2D10E0B801882777FD79
:101D90008095982F0E94D71020E030E040E05EE36D
:101DA0000E94DE110E9412119B01AC01C701B60115
:101DB00029833A834C835B830E94D71029813A811F
:101DC0004C815B810E94C10F0E94A410D3015396E5
:101DD000ED91FC915497E60FF71F408150E000957C
:101DE00010950770112702C0559547950A95E2F79F
:101DF000417014966D917D918D919C9117974C83B4
:101E00000E94A910162F1A0DF30160817181828141
:101E100093810E94A910862F4C81612F8B0D0E9407
:101E2000070CB394AACFA3949BCF0F900F900F9061
:101E30000F90DF91CF911F910F91FF90EF90DF9066
:101E4000CF90BF90AF909F907F906F9008954F92EA
:101E50005F926F927F928F929F92AF92BF92CF923A
:101E6000DF92EF92FF920F931F93CF93DF9300D0F7
:101E700000D0CDB7DEB72C01662E842EDC01529641
:101E80008C915297882309F466C050966C9170E04B
:101E900080E090E00E94D71020E030E040E05EE378
:101EA0000E94DE110E9425100E94A910762EB12CEE
:101EB000D20151968C91B81608F04DC0B79C6001C4
:101EC0001124A12CEE24D7FCE094FE2C9B2C980C22
:101ED000F2018089A816E8F50A2D10E0B8018827DC
:101EE00077FD8095982F0E94D71020E030E040E0E9
:101EF0005EE30E94DE110E9412119B01AC01C7013A
:101F0000B60129833A834B835C830E94D7102981D1
:101F10003A814B815C810E94C10F0E94A410D201C2
:101F20005396ED91FC915497E60FF71F408150E0D6
:101F3000009510950770112702C0559547950A9591
:101F4000E2F74170692D8A2D860D0E94070CA3943B
:101F5000BFCFB394ADCF0F900F900F900F90DF9144
:101F6000CF911F910F91FF90EF90DF90CF90BF9096
:101F7000AF909F908F907F906F905F904F9008955B
:101F80005058BB27AA270ED0C4C1B5D130F0BAD162
:101F900020F031F49F3F11F41EF4AAC10EF4E09535
:101FA000E7FB77C1E92FC6D180F3BA176207730741
:101FB0008407950718F071F49EF5F5C10EF4E095CD
:101FC0000B2EBA2FA02D0B01B90190010C01CA01F3
:101FD000A0011124FF27591B99F0593F50F4503E9E
:101FE00068F11A16F040A22F232F342F4427585F90
:101FF000F3CF469537952795A795F0405395C9F7A8
:102000007EF41F16BA0B620B730B840BBAF091505F
:10201000A1F0FF0FBB1F661F771F881FC2F70EC0FE
:10202000BA0F621F731F841F48F4879577956795D1
:10203000B795F7959E3F08F0B3CF9395880F08F0BA
:102040009927EE0F97958795089596D180F09F3741
:1020500040F491110EF4A8C160E070E080E89FE3C5
:10206000089526F01B16611D711D811D18C132C116
:10207000ECD008F481E008950CD04BC143D140F07E
:102080003AD130F021F45F3F19F003C151118CC1F6
:102090002FC150D198F39923C9F35523B1F3951B60
:1020A000550BBB27AA2762177307840738F09F5F79
:1020B0005F4F220F331F441FAA1FA9F333D00E2EE8
:1020C0003AF0E0E830D091505040E695001CCAF755
:1020D00029D0FE2F27D0660F771F881FBB1F26171A
:1020E00037074807AB07B0E809F0BB0B802DBF01ED
:1020F000FF2793585F4F2AF09E3F510568F0C9C0F3
:1021000053C15F3FECF3983EDCF386957795679576
:10211000B795F7959F5FC9F7880F911D969587959D
:1021200097F90895E1E0660F771F881FBB1F6217BC
:1021300073078407BA0720F0621B730B840BBA0B7A
:10214000EE1F88F7E095089504D06894B1112CC172
:102150000895F8D088F09F5790F0B92F9927B7517C
:10216000A0F0D1F0660F771F881F991F1AF0BA955B
:10217000C9F712C0B13081F016D1B1E0089513C192
:10218000672F782F8827B85F39F0B93FCCF3869551
:1021900077956795B395D9F73EF4909580957095AE
:1021A00061957F4F8F4F9F4F0895E89409C097FB2B
:1021B0003EF490958095709561957F4F8F4F9F4F1E
:1021C0009923A9F0F92F96E9BB279395F695879562
:1021D00077956795B795F111F8CFFAF4BB0F11F425
:1021E00060FF1BC06F5F7F4F8F4F9F4F16C08823CC
:1021F00011F096E911C0772321F09EE8872F762F02
:1022000005C0662371F096E8862F70E060E02AF042
:102210009A95660F771F881FDAF7880F969587952E
:1022200097F90895A9D080F09F3740F491110EF0EE
:10223000BBC060E070E080E89FEB089526F41B16B9
:10224000611D711D811D2BC045C0990F0008550FE0
:10225000AA0BE0E8FEEF16161706E807F907C0F02C
:1022600012161306E407F50798F0621B730B840B34
:10227000950B39F40A2661F0232B242B252B21F40E
:1022800008950A2609F4A140A6958FEF811D811DAE
:10229000089597F99F6780E870E060E008958823CB
:1022A00071F4772321F09850872B762F07C066238F
:1022B00011F499270DC09051862B70E060E02AF050
:1022C0009A95660F771F881FDAF7880F969587957E
:1022D00097F908959F3F31F0915020F487957795B5
:1022E0006795B795880F911D9695879597F90895ED
:1022F0009FEF80EC089500240A941616170618061E
:102300000906089500240A941216130614060506F9
:102310000895092E0394000C11F4882352F0BB0F8A
:1023200040F4BF2B11F460FF04C06F5F7F4F8F4FED
:102330009F4F089557FD9058440F551F59F05F3F28
:1023400071F04795880F97FB991F61F09F3F79F0D7
:1023500087950895121613061406551FF2CF469559
:10236000F1DF08C0161617061806991FF1CF8695DB
:102370007105610508940895E5DFA0F0BEE7B9177F
:1023800088F4BB279F3860F41616B11D672F782F8D
:102390008827985FF7CF869577956795B11D9395B8
:1023A0009639C8F30895E894BB2766277727CB01B1
:1023B00097F908954ADF08F48FEF08950BD0A9CF5D
:1023C0009ADF28F09FDF18F0952309F062CF90CFB5
:1023D0001124EACFAFDFA0F3959FD1F3950F50E022
:1023E000551F629FF001729FBB27F00DB11D639FC7
:1023F000AA27F00DB11DAA1F649F6627B00DA11D6D
:10240000661F829F2227B00DA11D621F739FB00D12
:10241000A11D621F839FA00D611D221F749F332782
:10242000A00D611D231F849F600D211D822F762F1B
:102430006A2F11249F5750408AF0E1F088234AF018
:10244000EE0FFF1FBB1F661F771F881F9150504064
:10245000A9F79E3F510570F01CCFA6CF5F3FECF36C
:10246000983EDCF3869577956795B795F795E79550
:102470009F5FC1F7FE2B880F911D9695879597F961
:10248000089560DFE0F09E37D8F09639B8F49E38B2
:1024900048F4672F782F8827985FF9CF869577952E
:1024A000679593959539D0F3B62FB1706B0F711D69
:1024B000811D20F48795779567959395F0CE0ACF87
:1024C00073CF97FB072E16F4009407D077FD09D041
:1024D0000E94AC1207FC05D03EF4909581959F4F69
:1024E0000895709561957F4F08952F923F924F9276
:1024F0005F926F927F928F929F92AF92BF92CF9294
:10250000DF92EF92FF920F931F93CF93DF93CDB79C
:10251000DEB7CA1BDB0B0FB6F894DEBF0FBECDBF14
:1025200009942A88398848885F846E847D848C84E5
:102530009B84AA84B984C884DF80EE80FD800C81EE
:102540001B81AA81B981CE0FD11D0FB6F894DEBFD1
:102550000FBECDBFED010895AA1BBB1B51E107C003
:10256000AA1FBB1FA617B70710F0A61BB70B881F23
:10257000991F5A95A9F780959095BC01CD010895B2
:102580008F929F92AF92BF92CF92DF92EF92FF9283
:10259000CF93DF93EC01688179818A819B816115FA
:1025A00071058105910521F464E279ED8BE597E0F1
:1025B0002DE133EF41E050E00E94BE1449015A0181
:1025C0009B01AC01A7EAB1E40E94DD146B017C0120
:1025D000ACEEB4EFA50194010E94EB14C60ED71E19
:1025E000E81EF91EF7FE06C081E0C81AD108E1080E
:1025F00080E8F80AC882D982EA82FB82C6019F7706
:10260000DF91CF91FF90EF90DF90CF90BF90AF9090
:102610009F908F9008950E94C01208958AE691E0DD
:102620000E94C0120895A0E0B0E080936A019093E8
:102630006B01A0936C01B0936D010895283008F0F0
:1026400027E03327DA01990F311D87FD916000964D
:102650006105710539F432602E5F3D9330E32A95B0
:10266000E1F708959F3F30F080387105610509F06A
:102670003C5F3C5F3D93913008F08068911DDF9393
:10268000CF931F930F93FF92EF92192F987F9695F8
:10269000E92F96959695E90FFF27E253FB4F99276F
:1026A0003327EE24FF24A701E7010590089407943F
:1026B00028F4360FE71EF81E491F511D660F771FBD
:1026C000881F991F0694A1F70590079428F4E70E38
:1026D000F81E491F561FC11D770F881F991F661FBF
:1026E0000694A1F70590079428F4F80E491F561F89
:1026F000C71FD11D880F991F661F771F0694A1F76A
:102700000590079420F4490F561FC71FD81F990F33
:10271000661F771F881F0694A9F78491109517707C
:1027200041F0D695C79557954795F794E7941A9534
:10273000C1F7E4E7F4E0689415901591359165913F
:10274000959105907FE27395E118F10A430B560BC2
:10275000C90BD009C0F7E10CF11E431F561FC91F5A
:10276000D01D7EF4703311F48A95E6CFE8940150C1
:1027700030F0080F0AF40027021708F4202F2395E1
:10278000022F7A3328F079E37D932A95E9F710C078
:102790007D932A9589F606949795679537951795B1
:1027A0001794E118F10A430B560BC90BD00998F0A6
:1027B00023957E9173957A3308F070E37C93201310
:1027C000B8F77E9170617D9330F0839571E37D93CE
:1027D00070E32A95E1F71124EF90FF900F911F917C
:1027E000CF91DF91992787FD90950895FC01059081
:1027F000615070400110D8F7809590958E0F9F1F03
:102800000895FC016150704001900110D8F7809547
:1028100090958E0F9F1F08950F931F93CF93DF9373
:10282000182F092FEB018B8181FD03C08FEF9FEFE4
:1028300020C082FF10C04E815F812C813D814217F4
:1028400053077CF4E881F9819F012F5F3F4F398363
:102850002883108306C0E885F985812F0995892B87
:1028600029F72E813F812F5F3F4F3F832E83812F9A
:10287000902FDF91CF911F910F910895AEE0B0E0BE
:10288000E4E4F4E10C9483120D891E8986E08C83C4
:102890001A8309838FEF9FE79E838D83AE01475E86
:1028A0005F4F6F89788DCE0101960E947108EF818C
:1028B000F885E00FF11F10822E96E4E00C949F1231
:1028C000FA01AA27283051F1203181F1E8946F9361
:1028D0006E7F6E5F7F4F8F4F9F4FAF4FB1E03ED007
:1028E000B4E03CD0670F781F891F9A1FA11D680FA5
:1028F000791F8A1F911DA11D6A0F711D811D911DD8
:10290000A11D20D009F468943F912AE0269F11244C
:102910003019305D3193DEF6CF010895462F4770B0
:10292000405D4193B3E00FD0C9F7F6CF462F4F700B
:10293000405D4A3318F0495D31FD4052419302D069
:10294000A9F7EACFB4E0A69597958795779567950F
:10295000BA95C9F700976105710508959B01AC010F
:102960000A2E06945795479537952795BA95C9F736
:10297000620F731F841F951FA01D0895052E97FBDE
:102980001EF400940E94D51457FD07D00E94F01445
:1029900007FC03D04EF40C94D51450954095309517
:1029A00021953F4F4F4F5F4F0895909580957095BB
:1029B00061957F4F8F4F9F4F08950E941215A59FDD
:1029C000900DB49F900DA49F800D911D112408952A
:1029D000B7FF0C94DD140E94DD14821B930B089545
:1029E000A1E21A2EAA1BBB1BFD010DC0AA1FBB1F13
:1029F000EE1FFF1FA217B307E407F50720F0A21B85
:102A0000B30BE40BF50B661F771F881F991F1A94F1
:102A100069F760957095809590959B01AC01BD011B
:102A2000CF010895A29FB001B39FC001A39F700D75
:102A3000811D1124911DB29F700D811D1124911DC6
:062A40000895F894FFCF99
:102A4600030007E0181820044002581A981980015C
:102A5600800190099009881147E240022004181865
:102A660007E007E018182004400258029801801970
:102A76008019800187F181814002400220041818E4
:102A860007E007E01818200440024812842182411A
:102A96008001800183C18421481240022004181855
:102AA60007E000888888F888888801000000546854
:102AB600616E61740043686F6B77696A69746B75E0
:102AC6006C006E39323334393030005072657373AE
:102AD60020616E7920627574746F6E004C65766540
:102AE6006C002564004C6566743A20506C61790070
:102AF60052696768743A20536B6970004C3A002C2F
:102B060020533A00596F752077696E2100596F7509
:102B1600206C6F73652100426173696300506F74A6
:102B2600656E74696F6D657465727300536572695D
:082B3600616C20506F72740005
:04000005008001FE78
:00000001FF
