:100000000C94B7020C94D4020C94D4020C94D40235
:100010000C94D4020C94D4020C94D4020C94D40208
:100020000C94D4020C94D4020C94D4020C94D402F8
:100030000C94D4020C94D4020C94D4020C94D402E8
:100040000C94D4020C94D4020C94D4020C94D402D8
:100050000C94D4020C94D4020C94D4020C94D402C8
:100060000C94D4020C94D4020C94D4020C94D402B8
:100070000C94D4020C94D4020C94D4020C94D402A8
:100080000C94D4020C94D4020C94D4020C94D40298
:100090000C94D4020C94D4020C94D4020C94D40288
:1000A0000C94D4020C94D4020C94D4026E616E00B1
:1000B000696E6600000000000000005F000000079D
:1000C000000700147F147F14242A7F2A12231308A8
:1000D000646236495522500005030000001C22418D
:1000E000000041221C0014083E081408083E0808BD
:1000F0000050300000080808080800606000002078
:10010000100804023E5149453E00427F40004261D2
:100110005149462141454B311814127F102745455E
:1001200045393C4A49493001710905033649494975
:1001300036064949291E00363600000056360000B2
:10014000081422410014141414140041221408024B
:1001500001510906324979413E7E1111117E7F49D4
:100160004949363E414141227F4141221C7F494954
:1001700049417F090909013E4149497A7F08080838
:100180007F00417F41002040413F017F0814224110
:100190007F404040407F020C027F7F0408107F3E7A
:1001A0004141413E7F090909063E4151215E7F09D7
:1001B000192946464949493101017F01013F404023
:1001C000403F1F2040201F3F4038403F6314081429
:1001D0006307087008076151494543007F414100AA
:1001E00002040810200041417F0004020102044083
:1001F00040404040000102040020545454787F489D
:100200004444383844444420384444487F385454A3
:100210005418087E0901020C5252523E7F08040411
:100220007800447D40002040443D007F1028440079
:1002300000417F40007C041804787C08040478386E
:10024000444444387C14141408081414187C7C08A2
:100250000404084854545420043F4440203C404087
:10026000207C1C2040201C3C4030403C442810286E
:10027000440C5050503C4464544C440008364100F7
:1002800000007F00000041360800100808100878C0
:1002900046414678000000000000005F00000007B3
:1002A000000700147F147F14242A7F2A12231308C6
:1002B000646236495522500005030000001C2241AB
:1002C000000041221C0014083E081408083E0808DB
:1002D0000050300000080808080800606000002096
:1002E000100804023E5149453E00427F40004261F1
:1002F0005149462141454B311814127F102745457D
:1003000045393C4A49493001710905033649494993
:1003100036064949291E00363600000056360000D0
:100320000814224100141414141400412214080269
:1003300001510906324979413E7E1111117E7F49F2
:100340004949363E414141227F4141221C7F494972
:1003500049417F090909013E4149497A7F08080856
:100360007F00417F41002040413F017F081422412E
:100370007F404040407F020C027F7F0408107F3E98
:100380004141413E7F090909063E4151215E7F09F5
:10039000192946464949493101017F01013F404041
:1003A000403F1F2040201F3F4038403F6314081447
:1003B0006307087008076151494543007F414100C8
:1003C00002040810200041417F00040201020440A1
:1003D00040404040000102040020545454787F48BB
:1003E0004444383844444420384444487F385454C2
:1003F0005418087E0901020C5252523E7F08040430
:100400007800447D40002040443D007F1028440097
:1004100000417F40007C041804787C08040478388C
:10042000444444387C14141408081414187C7C08C0
:100430000404084854545420043F4440203C4040A5
:10044000207C1C2040201C3C4030403C442810288C
:10045000440C5050503C4464544C44000836410015
:1004600000007F00000041360800100808100878DE
:100470004641467800407A10F35A00A0724E18099F
:100480000010A5D4E80000E87648170000E40B54FB
:10049000020000CA9A3B000000E1F50500008096CA
:1004A0009800000040420F000000A08601000000FC
:1004B000102700000000E8030000000064000000B6
:1004C00000000A00000000000100000000002C767F
:1004D000D888DC674F0823DFC1DFAE59E1B1B7969A
:1004E000E5E3E453C63AE651997696E8E6C28426F7
:1004F000EB898C9B62ED407C6FFCEFBC9C9F40F2D3
:10050000BAA56FA5F490055A2AF75C936B6CF9674E
:100510006DC11BFCE0E40D47FEF520E6B500D0ED13
:10052000902E0300943577050080841E080000207B
:100530004E0A000000C80C333333330F986E128319
:100540001141EF8D2114893BE65516CFFEE6DB18ED
:10055000D1844B381BF77C1D901DA4BBE4242032B2
:1005600084725E228100C9F124ECA1E53D271124AB
:100570001FBECFEFDAE0DEBFCDBF11E0A0E0B1E0FB
:10058000ECEEF9E102C005900D92A836B107D9F75B
:1005900023E0A8E6B1E001C01D92A236B207E1F760
:1005A0000E943A030C94F40C0C9400008FE30E9418
:1005B000160984B18C7F84B9089540E051E060E071
:1005C00080E00E94E30847E051E068E080E00E949C
:1005D000E30844E151E060E180E00E94E3084DE17E
:1005E00051E060E280E00C94E30823B12170809137
:1005F0006901281741F02093690181E090E02223EE
:1006000021F080E0089580E090E0089523B1227009
:1006100080916801281741F02093680181E090E003
:10062000222321F080E0089580E090E008950E9468
:10063000F502892B51F40E94060331E020E0892B5A
:1006400009F430E0832F922F089581E090E008951F
:10065000CF93DF93EC010E940603892B39F0CE0182
:10066000019663E070E00E94170BEC01CE01DF9170
:10067000CF91089580E88093610081E080936100CC
:100680000E94D6020E942F070E94DD020E941C07D2
:100690000E941703892BB1F3C0E0D0E00E942F071E
:1006A000CE010E942803EC012097B1F40E942F078D
:1006B00080E090E00E942803EC014EE251E060E00F
:1006C00080E00E94E30846E351E068E080E00E9499
:1006D000E3080E941C07E8CFC130D105B1F40E94A5
:1006E0002F0781E090E00E942803EC014CE351E0E9
:1006F00060E080E00E94E30844E451E068E080E0CC
:100700000E94E3080E941C07E7CFC230D105B1F474
:100710000E942F0782E090E00E942803EC0143E54D
:1007200051E060E080E00E94E3084BE551E068E0C2
:1007300080E00E94E3080E941C07E7CF0E941C078C
:10074000ADCFA3E1B0E0E7EAF3E00C942B0B7C0122
:100750001B016A01FC0117821682838181FF66C337
:10076000BE016F5F7F4F4B01F7019381F10193FD54
:10077000859193FF81911F01882309F453C385322A
:1007800039F493FD859193FF81911F01853239F4EE
:10079000B70190E00E94640C56016501E5CF10E0BE
:1007A000512C20E02032A0F48B3269F030F48032FA
:1007B00059F0833269F420612CC08D3239F08033D6
:1007C00039F4216026C02260246023C0286021C043
:1007D00027FD27C030ED380F3A3078F426FF06C0E9
:1007E000FAE01F9F300D1124132F13C06AE0569EAC
:1007F000300D1124532E20620CC08E3221F426FDC0
:1008000011C3206406C08C3611F4206802C08836FB
:1008100041F4F10193FD859193FF81911F018111B5
:10082000C1CF9BEB980F933018F42061805E06C017
:100830009BE9980F933008F0AAC12F7E26FF16E09F
:100840002F73722E853621F4F22FF0647F2E08C0AC
:10085000863621F4622F6068762E02C01111115085
:1008600077FE07C01C3348F444244394410E27E02C
:100870000BC0183030F4212F06C027E04CE3442E83
:1008800003C027E017E0412C560174E0A70EB11C0D
:10089000F6016081718182819381042DA4010E94FF
:1008A000760B6C01098100FF02C003FF06C071FCDA
:1008B00007C072FC08C0612C08C03DE2632E05C071
:1008C0002BE2622E02C090E2692E802F8C7099F18B
:1008D000662011F084E001C083E0851510F0512CF2
:1008E0000BC0581A73FC08C0B70180E290E00E9468
:1008F000640C5A94C9F7F3CF662029F0B701862D0E
:1009000090E00E94640C03FD03C000EB10E002C005
:100910000CEA10E0F72DF0717F2EF8018491882306
:1009200009F476C271108052B70190E00E94640C05
:100930000F5F1F4FF2CF77FE0FC04C0C04FF04C0B7
:100940008A81813309F44A94141474F5F8E0F4159B
:1009500078F588E0482E2CC076FC2AC0812F90E0E4
:100960008C159D059CF06CEFC6166FEFD60674F0E3
:10097000772D7068772E0AC0E2E0F0E0EC0FFD1FE3
:10098000E10FF11D8081803319F411501111F4CF62
:1009900077FE0EC044244394410E812F90E0C81688
:1009A000D9062CF41C1904C04424439401C010E05F
:1009B00077FE07C01C141D043CF496012F5F3F4FC7
:1009C00005C025E030E002C021E030E0662011F0F3
:1009D0002F5F3F4F112331F0412F50E04F5F5F4FAA
:1009E000240F351F452D50E02417350714F4521AF3
:1009F00001C0512C872D897049F4552039F0B70179
:100A000080E290E00E94640C5A94F7CF662029F0AF
:100A1000B701862D90E00E94640C73FC09C055203C
:100A200039F0B70180E390E00E94640C5A94F7CF4C
:100A300077FE5FC09C2D8D2DD7FE02C090E080E038
:100A4000692E782E40E050E0C601841991099D87F7
:100A50008C87960126193709280D391D812F90E0C2
:100A6000EE27FF27E81BF90BFF87EE87FFEF6F16D6
:100A70007F0669F4B7018EE290E02B8B3A8B488BAE
:100A8000598B0E94640C598948893A892B89C6146C
:100A9000D70454F06C857D85661577052CF4F90133
:100AA000E40FF51F818101C080E371E0671A7108CE
:100AB0004F5F5F4FEE85FF856E167F066CF0B701C6
:100AC00090E02B8B3A8B488B598B0E94640C2B89BE
:100AD0003A8948895989CACF6C147D0439F49A81BE
:100AE000963318F4953311F404FF81E3B70190E0D5
:100AF0004BC08A81813309F00F7EB70190E00E94DC
:100B0000640C111105C074FE18C085E490E017C094
:100B1000B7018EE290E00E94640C82E06624639448
:100B2000680EF401E80FF11D8081B70190E00E948A
:100B3000640C115041F3862DF1CF85E690E0B701AA
:100B40000E94640CD7FC05C0C114D10439F404FF21
:100B500005C0D194C194D1088DE201C08BE2B701E8
:100B600090E00E94640C80E36AE0C616D1042CF089
:100B70008F5FFAE0CF1AD108F7CFB70190E00E945B
:100B8000640CB701C601C0960E94640C41C1833653
:100B900031F0833779F0833509F058C021C0560110
:100BA00072E0A70EB11CF6018081898301E010E09C
:100BB000640114C05601F2E0AF0EB11CF601C08012
:100BC000D18026FF03C0612F70E002C06FEF7FEF7E
:100BD000C6012B8B0E94590C8C012B892F7715C0D5
:100BE0005601F2E0AF0EB11CF601C080D18026FFA5
:100BF00003C0612F70E002C06FEF7FEFC6012B8B47
:100C00000E944E0C8C012B892068722E23FD1AC085
:100C1000852D90E008171907A8F4B70180E290E04D
:100C20000E94640C5A94F4CFF60177FC859177FE0C
:100C300081916F01B70190E00E94640C51105A94A9
:100C4000015011090115110579F7E2C0843611F040
:100C5000893651F5560127FF09C0F4E0AF0EB11CEB
:100C6000F60160817181828193810AC0F2E0AF0E4A
:100C7000B11CF60160817181882777FD8095982FDE
:100C8000022F0F7697FF08C090958095709561951B
:100C90007F4F8F4F9F4F00682AE030E0A4010E94F1
:100CA000960CC82EC8183EC0022F853721F40F7E3F
:100CB0002AE030E01DC0097F8F3691F018F48835A6
:100CC00059F0B0C0803719F0883711F0ABC000611F
:100CD00004FF09C0046007C024FF08C0066006C006
:100CE00028E030E005C020E130E002C020E132E041
:100CF000560107FF09C0F4E0AF0EB11CF601608198
:100D000071818281938108C0F2E0AF0EB11CF601BF
:100D10006081718180E090E0A4010E94960CC82E51
:100D2000C8180F7706FF0BC0202F2E7FC11650F476
:100D300004FF0AC002FD08C0202F2E7E05C0DC2C57
:100D4000202F03C0DC2C01C0D12E24FF0DC0FE01DA
:100D5000EC0DF11D8081803311F4297E09C022FF42
:100D600006C0D394D39404C0822F867809F0D3941C
:100D700023FD13C020FF06C01C2DD51418F4150D3B
:100D80001D19D52CD51468F4B70180E290E02B8BA7
:100D90000E94640CD3942B89F5CFD51410F45D1800
:100DA00001C0512C24FF12C0B70180E390E02B8BCF
:100DB0000E94640C2B8922FF17C021FF03C088E525
:100DC00090E002C088E790E0B7010CC0822F8678DF
:100DD00059F021FD02C080E201C08BE227FD8DE2C7
:100DE000B70190E00E94640CC11638F4B70180E3AB
:100DF00090E00E94640C1150F7CFCA94F401EC0DFE
:100E0000F11D8081B70190E00E94640CC110F5CF04
:100E1000552009F4C2CCB70180E290E00E94640C36
:100E20005A94F6CFF7018681978102C08FEF9FEF2A
:100E30006396E2E10C94470BCF93DF9360E080E090
:100E40000E948409CAE6D1E0699181E00E94F80815
:100E500083E0C236D807C1F7DF91CF910895EAE663
:100E6000F1E0119283E0E236F807D9F7089584356E
:100E700000F56033F0F4E62FE695E695E6956770A9
:100E800094E5E99FF001112490E0E80FF91FE6597D
:100E9000FE4F81E090E0062E01C0880F0A94EAF729
:100EA000442319F09081982B03C08095908198235A
:100EB000908308952F923F924F925F926F927F920C
:100EC0008F929F92AF92BF92CF92DF92EF92FF925A
:100ED0000F931F93CF93DF93CDB7DEB72D970FB648
:100EE000F894DEBF0FBECDBFE82E262ED42EF22EF4
:100EF00084131DC0C62ED12C022F10E02F1498F49D
:100F00000C151D050CF4F5C041E06C2D8E2D0E94D2
:100F100037072F1420F42FEFC21AD20AEFCF31E097
:100F2000C31AD108EBCFC016D10674F7E2C0082F60
:100F300010E0842F90E09D878C8762131BC0ED1416
:100F400098F4EC85FD85E017F1070CF4D2C041E080
:100F5000622D802F0E943707ED1418F40F5F1F4F8A
:100F6000EECF01501109EBCF2C853D8502171307F9
:100F700074F7BFC06C857D85601B710B882777FD7A
:100F80008095982F0E94630A2B013C018F2D90E0E1
:100F90009E838D83312CBC0162197309882777FDEC
:100FA0008095982F0E94630A4B015C01A301920176
:100FB0000E94F90969837A838B839C8320E030E067
:100FC000A9010E94130B87FF0BC0A3019201C50169
:100FD000B40190580E94F90969837A838B839C83BA
:100FE000C12CD12C760120E030E0A901C301B2016F
:100FF0000E94130B18160CF076C0EC85FD85E017E7
:10100000F1070CF476C00B8741E0622D802F0E941F
:10101000370729813A814B815C81C701B6010E9463
:1010200091096B017C0120E030E040E05FE30E9429
:10103000130B87FF0DC020E030E0A901C301B2010E
:101040000E94130B18160CF04BC00F5F1F4FCBCF35
:1010500020E030E0A901C501B4010E94130B18166D
:10106000CCF52D813E81221533052CF341E0622D14
:101070008B850E943707E1E0F0E0F887EF8320E0FE
:1010800030E0A901C501B4010E94130B181614F039
:1010900018861F8221E030E03A87298720E030E07F
:1010A000A901C501B4010E94F50987FD02C01A8695
:1010B00019868F819885E985FA858E1B9F0B280EEE
:1010C000391E20E030E040E85FE3C701B6010E942E
:1010D0009009A7CF8D819E81281639063CF6ABCFAB
:1010E0000150110980CF2C853D85021713070CF0A4
:1010F0008ACF2D960FB6F894DEBF0FBECDBFDF911D
:10110000CF911F910F91FF90EF90DF90CF90BF9004
:10111000AF909F908F907F906F905F904F903F9097
:101120002F9008957F928F929F92AF92BF92CF920D
:10113000DF92EF92FF920F931F93CF93DF93882E4E
:10114000762E85E0489F7001112400E010E0F70141
:10115000EC5EFF4F7F01AA24A394B12C6701C00E5F
:10116000D11EC0E0D0E0982C900EF6012491A5018C
:101170000C2E02C0440F551F0A94E2F730E04223C0
:1011800053230C2E02C0559547950A94E2F76C2F15
:10119000670D892D0E9437072196C830D10529F7A0
:1011A0000F5F1F4F05301105C9F6DF91CF911F91D9
:1011B0000F91FF90EF90DF90CF90BF90AF909F90F6
:1011C0008F907F9008950F931F93CF93DF93062FF7
:1011D000EA01182F4991442331F0602F812F0E949A
:1011E00092081B5FF7CFDF91CF911F910F91089568
:1011F00025B130E2839FC00111242F7D282B25B912
:101200005F9887E090E070E08F989B01082E02C005
:10121000359527950A94E2F720FF02C02E9A01C067
:101220002E988F9A019780F75F9A0895CF93C82FD1
:10123000579A249A259A269A879A2C985F9A2C9ADC
:1012400061E280E00E94F8086C2F606880E00E94F4
:10125000F80864E080E00E94F80863E180E00E9402
:10126000F8086CE080E00E94F80860E280E00E94EC
:10127000F8086CE080E00E94F80860E480E00E94DA
:10128000F80860E880E0CF910C94F808CF93DF93E2
:10129000C8EFD1E060E081E00E94F8082197209734
:1012A000C9F7DF91CF9108950F931F93CF93DF93E9
:1012B000082F60E081E00E94F80885E0089F800127
:1012C0001124C0E0D0E00C501E4FF801EC0FFD1FC0
:1012D000649181E00E94F8082196C530D105A9F7F4
:1012E00060E081E0DF91CF911F910F910C94F8089D
:1012F000CF93DF93EC018991882319F00E94540960
:10130000FACFDF91CF910895CF93C82F606480E02A
:101310000E94F8086C2F606880E0CF910C94F80868
:101320005058BB27AA270ED044C135D130F03AD14E
:1013300020F031F49F3F11F41EF42AC10EF4E09521
:10134000E7FB20C1E92F46D180F3BA176207730784
:101350008407950718F071F49EF55EC10EF4E095D0
:101360000B2EBA2FA02D0B01B90190010C01CA015F
:10137000A0011124FF27591B99F0593F50F4503E0A
:1013800068F11A16F040A22F232F342F4427585FFC
:10139000F3CF469537952795A795F0405395C9F714
:1013A0007EF41F16BA0B620B730B840BBAF09150CC
:1013B000A1F0FF0FBB1F661F771F881FC2F70EC06B
:1013C000BA0F621F731F841F48F48795779567953E
:1013D000B795F7959E3F08F0B3CF9395880F08F027
:1013E0009927EE0F979587950895A8D008F481E086
:1013F00008950CD0DEC0D6D040F0CDD030F021F42E
:101400005F3F19F0BFC0511108C1C2C0E3D098F3CB
:101410009923C9F35523B1F3951B550BBB27AA2775
:1014200062177307840738F09F5F5F4F220F331FE7
:10143000441FAA1FA9F333D00E2E3AF0E0E830D0B3
:1014400091505040E695001CCAF729D0FE2F27D0B6
:10145000660F771F881FBB1F261737074807AB0784
:10146000B0E809F0BB0B802DBF01FF2793585F4FF9
:101470002AF09E3F510568F085C0CFC05F3FECF376
:10148000983EDCF3869577956795B795F7959F5FBE
:10149000C9F7880F911D9695879597F90895E1E012
:1014A000660F771F881FBB1F621773078407BA0771
:1014B00020F0621B730B840BBA0BEE1F88F7E095CC
:1014C0000895E89409C097FB3EF490958095709537
:1014D00061957F4F8F4F9F4F9923A9F0F92F96E980
:1014E000BB279395F695879577956795B795F111F5
:1014F000F8CFFAF4BB0F11F460FF1BC06F5F7F4F92
:101500008F4F9F4F16C0882311F096E911C07723A3
:1015100021F09EE8872F762F05C0662371F096E8AC
:10152000862F70E060E02AF09A95660F771F881F7B
:10153000DAF7880F9695879597F90895990F00081F
:10154000550FAA0BE0E8FEEF16161706E807F90795
:10155000C0F012161306E407F50798F0621B730B30
:10156000840B950B39F40A2661F0232B242B252BB1
:1015700021F408950A2609F4A140A6958FEF811D54
:10158000811D089597F99F6780E870E060E00895F5
:101590009FEF80EC089500240A941616170618068B
:1015A0000906089500240A94121613061406050667
:1015B0000895092E0394000C11F4882352F0BB0FF8
:1015C00040F4BF2B11F460FF04C06F5F7F4F8F4F5B
:1015D0009F4F089557FD9058440F551F59F05F3F96
:1015E00071F04795880F97FB991F61F09F3F79F045
:1015F00087950895121613061406551FF2CF4695C7
:10160000F1DF08C0161617061806991FF1CF869548
:101610007105610508940895E894BB27662777272C
:10162000CB0197F908958ADF08F48FEF089597FBAF
:10163000072E16F4009407D077FD09D00E94620BA4
:1016400007FC05D03EF4909581959F4F08957095C5
:1016500061957F4F08952F923F924F925F926F92C4
:101660007F928F929F92AF92BF92CF92DF92EF9232
:10167000FF920F931F93CF93DF93CDB7DEB7CA1BB3
:10168000DB0B0FB6F894DEBF0FBECDBF09942A88DE
:10169000398848885F846E847D848C849B84AA8486
:1016A000B984C884DF80EE80FD800C811B81AA8113
:1016B000B981CE0FD11D0FB6F894DEBF0FBECDBFDE
:1016C000ED010895AA1BBB1B51E107C0AA1FBB1F58
:1016D000A617B70710F0A61BB70B881F991F5A95BE
:1016E000A9F780959095BC01CD010895283008F0A8
:1016F00027E03327DA01990F311D87FD91600096AD
:101700006105710539F432602E5F3D9330E32A950F
:10171000E1F708959F3F30F080387105610509F0C9
:101720003C5F3C5F3D93913008F08068911DDF93F2
:10173000CF931F930F93FF92EF92192F987F969557
:10174000E92F96959695E90FFF27E253FB4F9927CE
:101750003327EE24FF24A701E7010590089407949E
:1017600028F4360FE71EF81E491F511D660F771F1C
:10177000881F991F0694A1F70590079428F4E70E97
:10178000F81E491F561FC11D770F881F991F661F1E
:101790000694A1F70590079428F4F80E491F561FE8
:1017A000C71FD11D880F991F661F771F0694A1F7C9
:1017B0000590079420F4490F561FC71FD81F990F93
:1017C000661F771F881F0694A9F7849110951770DC
:1017D00041F0D695C79557954795F794E7941A9594
:1017E000C1F7E4E7F4E0689415901591359165919F
:1017F000959105907FE27395E118F10A430B560B22
:10180000C90BD009C0F7E10CF11E431F561FC91FB9
:10181000D01D7EF4703311F48A95E6CFE894015020
:1018200030F0080F0AF40027021708F4202F239540
:10183000022F7A3328F079E37D932A95E9F710C0D7
:101840007D932A9589F60694979567953795179510
:101850001794E118F10A430B560BC90BD00998F005
:1018600023957E9173957A3308F070E37C9320136F
:10187000B8F77E9170617D9330F0839571E37D932D
:1018800070E32A95E1F71124EF90FF900F911F91DB
:10189000CF91DF91992787FD90950895FC010590E0
:1018A000615070400110D8F7809590958E0F9F1F62
:1018B0000895FC016150704001900110D8F78095A7
:1018C00090958E0F9F1F08950F931F93CF93DF93D3
:1018D000182F092FEB018B8181FD03C08FEF9FEF44
:1018E00020C082FF10C04E815F812C813D81421754
:1018F00053077CF4E881F9819F012F5F3F4F3983C3
:101900002883108306C0E885F985812F0995892BE6
:1019100029F72E813F812F5F3F4F3F832E83812FF9
:10192000902FDF91CF911F910F910895FA01AA276F
:10193000283051F1203181F1E8946F936E7F6E5F12
:101940007F4F8F4F9F4FAF4FB1E03ED0B4E03CD0C0
:10195000670F781F891F9A1FA11D680F791F8A1FA3
:10196000911DA11D6A0F711D811D911DA11D20D00A
:1019700009F468943F912AE0269F11243019305DC4
:101980003193DEF6CF010895462F4770405D4193B5
:10199000B3E00FD0C9F7F6CF462F4F70405D4A3302
:1019A00018F0495D31FD4052419302D0A9F7EACFCA
:1019B000B4E0A6959795879577956795BA95C9F7F9
:1019C00000976105710508959B01AC010A2E0694EC
:1019D0005795479537952795BA95C9F7620F731FA5
:0C19E000841F951FA01D0895F894FFCFF0
:1019EC005468616E61740043686F6B77696A6974DF
:1019FC006B756C006E39323334393030005072658F
:101A0C00737320616E7920627574746F6E004C650F
:101A1C0076656C2031004261736963004C657665B4
:101A2C006C203200506F74656E74696F6D657465EF
:101A3C007273004C6576656C203300536572696176
:081A4C006C20506F7274000061
:00000001FF
