:100000000C945D030C947A030C947A030C947A0399
:100010000C947A030C947A030C947A030C947A036C
:100020000C947A030C947A030C946B110C94A51124
:100030000C947A030C947A030C947A030C947A034C
:100040000C947A030C947A030C947A030C947A033C
:100050000C944F0D0C947A030C947A030C947A034D
:100060000C947A030C947A030C947A030C947A031C
:100070000C947A030C947A030C947A030C947A030C
:100080000C947A030C947A030C947A030C947A03FC
:100090000C947A030C947A030C947A030C947A03EC
:1000A0000C947A030C947A030C947A030B110311C9
:1000B000FB10F310EB10E310DB10D310CB10C310C8
:1000C000BB10B310AB10A3109B1093108B108310B8
:1000D0007B1073106B1063105B1053104B104310A8
:1000E0003B1033102B1023101B1013100B10031098
:1000F000FB0FF30FEB0FE30FDB0FD30FCB0FC30F90
:10010000BB0FB30FAB0FA30F9B0F930F8B0F830F7F
:100110007B0F730F6B0F630F5B0F530F4B0F430F6F
:100120003B0F330F2B0F230F1B0F130F0B0F000170
:100130000000DB01120002000098014300030000F0
:10014000940104010309047E0114020309046601F9
:10015000160303090458010C0C033100320033006C
:100160003400350000001603550053004200200003
:10017000530065007200690061006C000000140308
:1001800059006F007500720020004E0061006D0084
:10019000650000000403090409024300020100C0D5
:1001A00032090400000102020100052400100105CB
:1001B000240101010424020605240600010705822A
:1001C0000310004009040100020A000000070503B3
:1001D00002400000070584024000001201000202F4
:1001E000000010C0167A040001010203010001C1E1
:1001F000120180360181366E616E00696E66000004
:100200000000000000005F00000007000700147FEE
:10021000147F14242A7F2A12231308646236495556
:1002200022500005030000001C2241000041221C56
:100230000014083E081408083E080800503000006A
:100240000808080808006060000020100804023E4A
:100250005149453E00427F4000426151494621419B
:10026000454B311814127F1027454545393C4A4902
:10027000493001710905033649494936064949297A
:100280001E003636000000563600000814224100D9
:1002900014141414140041221408020151090632E6
:1002A0004979413E7E1111117E7F494949363E41CF
:1002B0004141227F4141221C7F494949417F09092F
:1002C00009013E4149497A7F0808087F00417F4182
:1002D000002040413F017F081422417F40404040C0
:1002E0007F020C027F7F0408107F3E4141413E7F28
:1002F000090909063E4151215E7F091929464649EF
:1003000049493101017F01013F4040403F1F2040EA
:10031000201F3F4038403F631408146307087008EB
:10032000076151494543007F414100020408102004
:100330000041417F0004020102044040404040006F
:100340000102040020545454787F4844443838440F
:10035000444420384444487F3854545418087E0993
:1003600001020C5252523E7F0804047800447D4042
:10037000002040443D007F1028440000417F4000A1
:100380007C041804787C0804047838444444387C9D
:1003900014141408081414187C7C08040408485425
:1003A000545420043F4440203C4040207C1C2040CA
:1003B000201C3C4030403C44281028440C505050F5
:1003C0003C4464544C44000836410000007F000067
:1003D00000413608001008081008784641467800A9
:1003E0000000000000005F00000007000700147F0D
:1003F000147F14242A7F2A12231308646236495575
:1004000022500005030000001C2241000041221C74
:100410000014083E081408083E0808005030000088
:100420000808080808006060000020100804023E68
:100430005149453E00427F400042615149462141B9
:10044000454B311814127F1027454545393C4A4920
:100450004930017109050336494949360649492998
:100460001E003636000000563600000814224100F7
:100470001414141414004122140802015109063204
:100480004979413E7E1111117E7F494949363E41ED
:100490004141227F4141221C7F494949417F09094D
:1004A00009013E4149497A7F0808087F00417F41A0
:1004B000002040413F017F081422417F40404040DE
:1004C0007F020C027F7F0408107F3E4141413E7F46
:1004D000090909063E4151215E7F0919294646490D
:1004E00049493101017F01013F4040403F1F204009
:1004F000201F3F4038403F6314081463070870080A
:10050000076151494543007F414100020408102022
:100510000041417F0004020102044040404040008D
:100520000102040020545454787F4844443838442D
:10053000444420384444487F3854545418087E09B1
:1005400001020C5252523E7F0804047800447D4060
:10055000002040443D007F1028440000417F4000BF
:100560007C041804787C0804047838444444387CBB
:1005700014141408081414187C7C08040408485443
:10058000545420043F4440203C4040207C1C2040E8
:10059000201C3C4030403C44281028440C50505013
:1005A0003C4464544C44000836410000007F000085
:1005B00000413608001008081008784641467800C7
:1005C000407A10F35A00A0724E18090010A5D4E822
:1005D0000000E87648170000E40B54020000CA9AB5
:1005E0003B000000E1F50500008096980000004007
:1005F000420F000000A0860100000010270000004C
:1006000000E803000000006400000000000A000091
:100610000000000100000000002C76D888DC674F45
:100620000823DFC1DFAE59E1B1B796E5E3E453C675
:100630003AE651997696E8E6C28426EB898C9B626D
:10064000ED407C6FFCEFBC9C9F40F2BAA56FA5F417
:1006500090055A2AF75C936B6CF9676DC11BFCE03F
:10066000E40D47FEF520E6B500D0ED902E03009492
:100670003577050080841E080000204E0A00000027
:10068000C80C333333330F986E12831141EF8D2131
:1006900014893BE65516CFFEE6DB18D1844B381B98
:1006A000F77C1D901DA4BBE424203284725E22815D
:1006B00000C9F124ECA1E53D270011241FBECFEFB6
:1006C000DAE0DEBFCDBF12E0A0E0B1E0ECECF1E497
:1006D00002C005900D92AA31B107D9F724E0AAE132
:1006E000B2E001C01D92A637B207E1F70E94F412F2
:1006F0000C94E4200C9400008FE30E94A31984B1B1
:100700008C7F84B9E1E8F0E08081877F80838081FD
:100710008360808380818B7F808381E080936F0002
:10072000EAE7F0E0808187608083ACE7B0E08C91FD
:1007300080628C938C9180648C93808180688083AC
:100740000E94ED0D7894EAE7F0E080818064808378
:100750000895AF92BF92CF92EF920F931F9382E6CC
:10076000A82E81E0B82E98E0C92E28E0E22E00E005
:1007700010E020E232E440E050E06CE172E48AE212
:1007800092E00E941D1A1F910F91EF90CF90BF90A1
:10079000AF900895AF92BF92CF92EF920F931F93B5
:1007A00032E0A32E31E0B32E40E1C42E50E1E52E1D
:1007B00000E010E09801B901A8018FE392E00E94E7
:1007C0001D1A62E2A62E61E0B62E00E010E098014C
:1007D000B901A80184E592E00E941D1A72E4A72ED7
:1007E00071E0B72E00E010E09801B901A80189E698
:1007F00092E00E941D1A1F910F91EF90CF90BF9031
:10080000AF90089545E751E060E080E00E947019E4
:100810004CE751E068E080E00E94701949E851E03F
:1008200060E180E00E94701942E951E060E280E0FE
:100830000C94701923B1217080912502281741F082
:100840002093250281E090E0222321F080E00895AA
:1008500080E090E0089523B122708091240228174F
:1008600041F02093240281E090E0222321F080E0F7
:10087000089580E090E008950E941A04892B51F4B5
:100880000E942B0431E020E0892B09F430E0832F13
:10089000922F089581E090E00895CF93DF93EC01CB
:1008A0000E942B04892B39F0CE01019663E070E0A1
:1008B0000E941E1EEC01CE01DF91CF910895CF92D0
:1008C000DF92FF920F931F93CF93DF931F92CDB7C9
:1008D000DEB7F82E6B018A0143EA51E060E080E068
:1008E00099830E94701999819F93FF9289EA91E000
:1008F0009F938F931F930F930E940120A80160E0A4
:100900008CE10E947019A60168E080E00E947019D5
:100910004CEA51E068E180E00E9470190F900F905E
:100920000F900F900F900F9047EB51E060E280E046
:100930000F90DF91CF911F910F91FF90DF90CF909B
:100940000C9470190F931F93CF93DF938C0143EC9A
:1009500051E060E080E00E947019809101018F9366
:10096000809100018F93C9EAD1E0DF93CF931F9369
:100970000F930E940120A80160E08CE00E94701992
:1009800046EC51E060E081E10E9470198091210203
:100990008F93809120028F93DF93CF931F930F93B8
:1009A0000E940120A80160E088E20E9470198DB7C2
:1009B0009EB70C960FB6F8949EBF0FBE8DBF28E071
:1009C00044E568E080E0DF91CF911F910F910C9496
:1009D000E71781E090E0909323028093220283E066
:1009E00090E09093010180930001109221021092F7
:1009F000200210921F0210921E0210921D021092ED
:100A00001C0210921B0210921A0280E090E0ACE1EE
:100A1000B2E480932A0290932B02A0932C02B0930D
:100A20002D0280E090E0A0E2B2E480932E02909349
:100A30002F02A0933002B093310280E090E0A0E258
:100A4000B1E480933F0290934002A0934102B0939F
:100A5000420240E050E064E072E44093540250935C
:100A60005502609356027093570240E050E060E6F2
:100A700072E44093690250936A0260936B02709330
:100A80006C028093430290934402A0934502B0937A
:100A900046021092470210924802109249021092A8
:100AA0004A0210924B0210924C0210924D02109288
:100AB0004E028093580290935902A0935A02B09329
:100AC0005B0210925C0210925D0210925E02109224
:100AD0005F02109260021092610210926202109204
:100AE000630280936D0290936E02A0936F02B093A5
:100AF00070021092710210927202109273021092A0
:100B0000740210927502109276021092770210927F
:100B1000780208958AE292E00C94411ACF93DF9311
:100B2000CFE3D2E020E030E040E251E46C817D810F
:100B30008E819F810E94971D87FD03C0CE010E9478
:100B4000411A659682E0CE37D80761F7DF91CF91E1
:100B500008958F929F92AF92BF92CF92DF92EF92C1
:100B6000FF920E948A05C0902A02D0902B02E0904A
:100B70002C02F0902D0220E030E040E85FE3C70156
:100B8000B6010E947D1B0E94FE1D4B015C0120E00E
:100B900030E040EA50E4C701B6010E947E1B0E948B
:100BA000FE1D6B017C010E941A04892B31F120E0AB
:100BB00030E040E450E460912A0270912B02809171
:100BC0002C0290912D020E947D1B60932A0270934B
:100BD0002B0280932C0290932D02C501B4010E9438
:100BE000611C16161706B4F110922A0210922B02FD
:100BF00010922C0210922D022DC00E942B04892BE2
:100C000049F120E030E040E450E460912A02709124
:100C10002B0280912C0290912D020E947E1B6093EA
:100C20002A0270932B0280932C0290932D02C7010D
:100C3000B6010E94611C6335710564F080E090E0AC
:100C4000AEE9B2E480932A0290932B02A0932C0287
:100C5000B0932D02FF90EF90DF90CF90BF90AF90B8
:100C60009F908F9008950E948A056091790070E0AE
:100C700080E090E00E94941C2DEC3CEC4CE450E4AD
:100C80000E94F91B0E94CF1C9B01AC0160E070E048
:100C90008EE992E40E947D1B60932A0270932B02DE
:100CA00080932C0290932D02EAE7F0E0808180642B
:100CB000808308958F929F92AF92BF92CF92DF92DE
:100CC000EF92FF920E948A050E94090E843609F471
:100CD00040C01CF4813641F0DCC0833709F4A2C067
:100CE000873709F46FC0D5C0C0902A02D0902B027C
:100CF000E0902C02F0902D0220E030E040E85FE32D
:100D0000C701B6010E947D1B0E94FE1D4B015C01C4
:100D100020E030E040E450E4C701B6010E947D1BB2
:100D200060932A0270932B0280932C0290932D02E1
:100D3000C501B4010E94611C161617060CF4A9C067
:100D400010922A0210922B0210922C0210922D0265
:100D5000A0C0C0902A02D0902B02E0902C02F0900C
:100D60002D0220E030E040EA50E4C701B6010E94C5
:100D70007E1B0E94FE1D4B015C0120E030E040E440
:100D800050E4C701B6010E947E1B60932A02709353
:100D90002B0280932C0290932D02C501B4010E9476
:100DA000611C633571050CF474C080E090E0AEE91D
:100DB000B2E480932A0290932B02A0932C02B0936A
:100DC0002D0267C0C0902E02D0902F02E09030021A
:100DD000F090310220E030E040E85FE3C701B60167
:100DE0000E947D1B0E94FE1D4B015C0120E030E053
:100DF00040E450E4C701B6010E947D1B60932E02BF
:100E000070932F028093300290933102C501B40198
:100E10000E94611C6B307105E4F580E090E0A0E277
:100E2000B1E42FC0C0902E02D0902F02E09030028B
:100E3000F090310220E030E040EE50E4C701B6010E
:100E40000E947E1B0E94FE1D4B015C0120E030E0F1
:100E500040E450E4C701B6010E947E1B60932E025D
:100E600070932F028093300290933102C501B40138
:100E70000E94611C6832710564F080E090E0A0E29D
:100E8000B2E480932E0290932F02A0933002B0938D
:100E90003102FF90EF90DF90CF90BF90AF909F9086
:100EA0008F9008952F923F924F925F926F927F9210
:100EB0008F929F92AF92BF92CF92DF92EF92FF926A
:100EC0000F931F93CF93DF9300D000D0CDB7DEB741
:100ED00040902A0250902B0260902C0270902D02BC
:100EE00020E030E040E850E4C301B2010E947E1BE4
:100EF00069837A838B839C83C0902E02D0902F02CB
:100F0000E0903002F0903102EFE32E2EE2E03E2E30
:100F100000E010E0F10180809180A280B380A50103
:100F2000940169817A818B819C810E94971D87FD44
:100F300033C020E030E040E751E4C501B4010E9435
:100F40007E1B9B01AC01C301B2010E94F51B181668
:100F50001CF1F10184809580A680B78020E030E00C
:100F600040EE50E4C701B6010E947E1BA50194012A
:100F70000E94971D87FD10C020E030E040E751E45B
:100F8000C501B4010E947E1B9B01AC01C701B601E3
:100F90000E94F51B181664F40F5F1F4FF5E12F0E2A
:100FA000311C0330110509F0B5CF8FEF9FEF01C061
:100FB000C8010F900F900F900F90DF91CF911F916C
:100FC0000F91FF90EF90DF90CF90BF90AF909F90E8
:100FD0008F907F906F905F904F903F902F900895EB
:100FE00080911E0290911F02892BA1F50E94520749
:100FF00097FD30C08130910579F082309105D9F0AC
:10100000892B11F5809120029091210202969093F4
:1010100021028093200218C080911C0290911D0231
:1010200001968230910514F082E090E090931D02C9
:1010300080931C0209C080910001909101010197E9
:10104000909301018093000181E090E090931F0252
:1010500080931E0208950F931F93CF93DF93EC01AB
:101060008B01FB012081318142815381688179812B
:101070008A819B810E947D1B0E94611C6B5E7F4F59
:101080006B327105B0F4F8012481358146815781B6
:101090006C817D818E819F810E947D1B0E94611CDD
:1010A0006B5E7F4F81E090E06B32710520F080E055
:1010B00002C080E090E0DF91CF911F910F910895E1
:1010C0004F925F926F927F928F929F92AF92BF9258
:1010D000CF92DF92EF92FF92CF93DF935C01EB010F
:1010E000FC01C080D180E280F380488059806A8012
:1010F0007B8020E030E040E851E4C701B6010E9467
:101100007E1BA30192010E94971D87FD3DC020E038
:1011100030E040E851E4C301B2010E947E1B9B0114
:10112000AC01C701B6010E94F51B18166CF1F50160
:10113000C480D580E680F7808C809D80AE80BF80A3
:1011400020E030E040E851E4C701B6010E947E1B78
:10115000A50194010E94971D87FD16C020E030E094
:1011600040E851E4C501B4010E947E1B9B01AC0123
:10117000D1E0C0E0C701B6010E94F51B18160CF4BF
:10118000D0E08D2F9C2F02C080E090E0DF91CF91C6
:10119000FF90EF90DF90CF90BF90AF909F908F9097
:1011A0007F906F905F904F9008958F929F92AF9233
:1011B000BF92CF92DF92EF92FF920F931F93CF9344
:1011C000DF93CFE3D2E002E410E0C12CD12CE12C7C
:1011D000F1E4FF2E812C912CA0EEAA2EA0E4BA2ED1
:1011E00020E030E040E751E46C817D818E819F8179
:1011F0000E947E1B0E94FE1D0E94611C60337105CF
:1012000024F180911C0290911D020197029728F40D
:101210008C829D82AE82BF8204C0CC82DD82EE824F
:10122000FF820E94D11EB8010E941E1EBC018827A9
:1012300077FD8095982F0E94941C688379838A8318
:101240009B8310921F0210921E02659682E0CE3799
:10125000D80731F6DF91CF911F910F91FF90EF905A
:10126000DF90CF90BF90AF909F908F9008952F9276
:101270003F924F925F926F927F928F929F92AF9226
:10128000BF92CF92DF92EF92FF920F931F93CF9373
:10129000DF93BFE38B2EB2E09B2EC1E0D0E013E0E2
:1012A000212E312C02E4A02EB12CC12CD12CE12C0A
:1012B00081E4F82E412C512C90EE692E90E4792E89
:1012C000CE01B1010E941E1E25E1289F8001299FA9
:1012D000100D1124015C1D4FB801C4010E942B08A0
:1012E000892B19F10E94D11EB5010E941E1EBC015E
:1012F000882777FD8095982F0E94941CF4016083C5
:1013000071838283938380911C0290911D020197C7
:10131000029728F44482558266827782DDCFF401F9
:10132000C482D582E682F782D7CF2196F5E18F0E6F
:10133000911CC430D10521F6DF91CF911F910F91FF
:10134000FF90EF90DF90CF90BF90AF909F908F90E5
:101350007F906F905F904F903F902F9008950E94E4
:101360008E050E94D5080E9437090C94F0074F9211
:101370005F926F927F92AF92BF92CF92DF92EF9285
:10138000FF920F931F93CF93DF93C7E4D2E002E065
:1013900010E0C12CD12CE12C20E4F22E412C512C58
:1013A000612C30EC732E0E94D11EB8010E941E1ECB
:1013B0005C010E94D11EB8010E941E1EA114B1043E
:1013C00029F4488259826A827B8207C0AA94AB289A
:1013D00021F4C882D982EA82FB82009729F44C82E8
:1013E0005D826E827F8206C0019721F4CC82DD820D
:1013F000EE82FF82659682E0C638D807A1F6DF91BB
:10140000CF911F910F91FF90EF90DF90CF90BF9001
:10141000AF907F906F905F904F9008952F923F9282
:101420004F925F926F927F928F929F92AF92BF92F4
:10143000CF92DF92EF92FF920F931F93CF93DF93A0
:10144000CFE3D2E001E010E044E4242E312C56E159
:10145000452E512C63E0A62EB12C0E94D11E6C01AA
:101460000E94D11E7C01C601B1010E941E1EBC015A
:10147000882777FD8095982F0E94941C6883798334
:101480008A839B83C701B2010E941E1E0A96BC017B
:10149000882777FD8095982F0E94941C6C837D830C
:1014A0008E839F83C801B5010E941E1E25E1289FDF
:1014B0006001299FD00C1124C601815C9D4F6C01F5
:1014C0000F5F1F4FC801B5010E941E1E289F7001AB
:1014D000299FF00C1124C701815C9D4F7C01B6014E
:1014E000CE010E942B08892B31F10E94D11E3C01B4
:1014F0000E94D11E4C01C301B1010E941E1EBC01FD
:10150000882777FD8095982F0E94941C68837983A3
:101510008A839B83C401B2010E941E1E0A96BC01ED
:10152000882777FD8095982F0E94941C6C837D837B
:101530008E839F83D4CFB701CE010E942B08892BC5
:10154000A1F665960430110509F087CF0E94520775
:1015500097FD16C025E1289FE001299FD00D112499
:10156000C15CDD4F20E030E040EE50E46C817D81D5
:101570008E819F810E947D1B6C837D838E839F83E0
:10158000DF91CF911F910F91FF90EF90DF90CF905F
:10159000BF90AF909F908F907F906F905F904F9093
:1015A0003F902F9008954F925F926F927F928F920B
:1015B0009F92AF92BF92CF92DF92EF92FF920F93E2
:1015C0001F93CF93DF93EFE3EE2EE2E0FE2E00E0D9
:1015D00010E0F3E0AF2EB12CA5E18A2E68018FEF69
:1015E000C81AD80AC601B5010E941E1E75E1972EC1
:1015F000889EE001899ED00D1124C15CDD4FBE01A3
:10160000C7010E946008892B09F402C1F7014084D8
:1016100051846284738420E030E040E050ECC301E8
:10162000B2010E94F51B811132C0909E7001919E03
:10163000F00C1124C701815C9D4F7C0180E090E09B
:10164000A0E0B0E4F70180879187A287B3879C016F
:10165000AD0160817181828193810E947E1BF701BF
:10166000608371838283938380E090E0A0E0B0EC9C
:1016700088879987AA87BB8720E030E040E050E464
:10168000688179818A819B810E947D1B3BC020E01B
:1016900030E040E050E4C301B2010E94F51B81112B
:1016A00036C0909E7001919EF00C1124C701815CA0
:1016B0009D4F7C0180E090E0A0E0B0ECF7018087D6
:1016C0009187A287B38720E030E040E050E460815A
:1016D0007181828193810E947D1BF70160837183F8
:1016E0008283938380E090E0A0E0B0E488879987CC
:1016F000AA87BB879C01AD01688179818A819B8122
:101700000E947E1B688379838A839B838AC0F7014A
:10171000448455846684778420E030E040E050ECD7
:10172000C301B2010E94F51B811132C0909E70016D
:10173000919EF00C1124C701815C9D4F7C0180E0DB
:1017400090E0A0E0B0E4F70184879587A687B7878B
:101750009C01AD0164817581868197810E947E1B09
:10176000F701648375838683978380E090E0A0E02F
:10177000B0EC8C879D87AE87BF8720E030E040E0EB
:1017800050E46C817D818E819F810E947D1B3BC0D6
:1017900020E030E040E050E4C301B2010E94F51BBC
:1017A000811136C0909E7001919EF00C1124C701EA
:1017B000815C9D4F7C0180E090E0A0E0B0ECF701FF
:1017C00084879587A687B78720E030E040E050E423
:1017D00060817181828193810E947D1BF70160830A
:1017E00071838283938380E090E0A0E0B0E48C87F3
:1017F0009D87AE87BF879C01AD016C817D818E8105
:101800009F810E947E1B6C837D838E839F8309C092
:10181000F5E1EF0EF11C83E0C816D10411F086014A
:10182000DDCEDF91CF911F910F91FF90EF90DF9070
:10183000CF90BF90AF909F908F907F906F905F9070
:101840004F9008954F925F926F927F928F929F92E6
:10185000AF92BF92CF92DF92EF92FF92CF93DF933E
:10186000CFE3D2E0C12CD12CE12CB0ECFB2E812CAB
:10187000912CA12C80E4B82E488059806A807B800E
:1018800020E030E0A901C301B2010E94F51B181647
:101890004CF0188219821A821B8288869986AA8641
:1018A000BB8616C020E030E048E852E4C301B20134
:1018B0000E94971D87FD0CC080E090E0A8E8B2E48C
:1018C00088839983AA83BB83C886D986EA86FB86E8
:1018D0004C805D806E807F8020E030E040E251E40B
:1018E000C301B2010E94F51B18166CF080E090E075
:1018F000A0E2B1E48C839D83AE83BF838C869D86FA
:10190000AE86BF8616C020E030E040E052E4C3015E
:10191000B2010E94971D87FD0CC080E090E0A0E01E
:10192000B2E48C839D83AE83BF83CC86DD86EE8656
:10193000FF86659682E0CE37D80709F09DCFDF910C
:10194000CF91FF90EF90DF90CF90BF90AF909F909E
:101950008F907F906F905F904F9008950E948E05BA
:101960000E94220C0E94D30A0E94F0070E94520794
:10197000019621F410921F0210921E020895809188
:101980001C0290911D028130910541F480918400E8
:1019900090918500883C9F4A80F009C0029769F4C5
:1019A00080918400909185008033954730F08FEFCF
:1019B0009FEF909385008093840008950F931F9369
:1019C000CF93DF93CDB7DEB7C055D1090FB6F894EA
:1019D000DEBF0FBECDBF8C010E94BC171092230248
:1019E0001092220280912002909121024497E1F40A
:1019F000CE0101960E94A2044BEC51E064E186E125
:101A00000E9470190E94A9172FEF8DE399E42150CD
:101A100080409040E1F700C00000C801019663E0FB
:101A200070E00E941E1E1EC0809100019091010175
:101A3000892BC1F4CE0101960E94A20444ED51E02D
:101A400064E186E10E9470190E94A9172FEF8DE3CF
:101A500099E4215080409040E1F700C0000080E010
:101A600090E000C0C05BDF4F0FB6F894DEBF0FBE42
:101A7000CDBFDF91CF911F910F910895CF93DF9349
:101A8000EC018991882319F00E94590EFACF8DE05C
:101A90000E94590E8AE0DF91CF910C94590E1F924B
:101AA0000F920FB60F9211242F933F934F935F9392
:101AB0006F937F938F939F93AF93BF93CF93DF9356
:101AC000EF93FF938091220290912302892B09F4D6
:101AD00043C020E030E040E050E460914302709168
:101AE000440280914502909146020E947E1B6093C1
:101AF000430270934402809345029093460220E093
:101B000030E040E050E460915802709159028091B9
:101B10005A0290915B020E947E1B60935802709360
:101B2000590280935A0290935B0220E030E040E03B
:101B300050E460916D0270916E0280916F029091FD
:101B400070020E947E1B60936D0270936E02809300
:101B50006F029093700229C080911A0290911B022B
:101B6000892B19F1CFE3D2E0288539854A855B8539
:101B7000688179818A819B810E947E1B6883798339
:101B80008A839B832C853D854E855F856C817D8115
:101B90008E819F810E947E1B6C837D838E839F83B9
:101BA000659682E0CE37D807F9F6FF91EF91DF9185
:101BB000CF91BF91AF919F918F917F916F915F91E5
:101BC0004F913F912F910F900FBE0F901F9018953E
:101BD0008091E80080FFFCCF089581E08093D700DA
:101BE00080EA8093D80082E189BD09B400FEFDCF70
:101BF00080E98093D8001092E000109229021092A0
:101C000026028CE08093E200789408958091290266
:101C100008959FB7F89480912902882369F083E0A2
:101C20008093E9002BE68091E80085FD09C082FFE2
:101C300003C02093E800F7CF9FBF8FEF9FEF089579
:101C40008091F1002091E80025FD03C02BE6209350
:101C5000E8009FBF90E008952FB7F8948091290283
:101C6000811102C080E010C083E08093E900809180
:101C7000F200811109C09091E80092FFF3CF95FD29
:101C8000F1CF9BE69093E8002FBF08958091290241
:101C9000882371F08FB7F89493E09093E9002BE6D6
:101CA0009091E80095FF03C02093E800F9CF8FBF23
:101CB000089590912902992371F09FB7F89424E038
:101CC0002093E90020912702222349F02091E80087
:101CD00025FD03C09FBF8FEF08951092270220912A
:101CE000E400275E34E04091E80045FD12C09FBF4C
:101CF0009091E400921304C081E080932702EBCF1F
:101D000090912902992339F39FB7F8943093E90011
:101D1000EACF8093F1008091E80085FD03C08AE35B
:101D20008093E80085E0809328029FBF80E00895BB
:101D3000909129029923D1F09FB7F89424E0209341
:101D4000E9002091E80025FD02C09FBF0FC08093ED
:101D5000F1008091E80085FD03C08AE38093E800EC
:101D600085E0809328029FBF80E008958FEF08955B
:101D7000EF92FF921F93CF93DF937C01CB012091D1
:101D80002902222371F0AFB7F89424E02093E900F0
:101D900020912702222349F02091E80025FD03C06D
:101DA000AFBF8FEF42C210922702B4E0C0E4DAE383
:101DB00015E0009709F438C22091E400275E3091C5
:101DC000E80035FD12C0AFBF3091E400321304C00B
:101DD00081E080932702E5CF30912902332309F374
:101DE000AFB7F894B093E900EACF2091F2004C2FFE
:101DF000421B242F30E08217930708F4482F841BDE
:101E0000910950E04134510508F0FDC14A5A5F4F35
:101E1000FA010C94321EF70120812093F100970102
:101E20002F5F3F4F7901F70120812093F100970147
:101E30002F5F3F4F7901F70120812093F100970137
:101E40002F5F3F4F7901F70120812093F100970127
:101E50002F5F3F4F7901F70120812093F100970117
:101E60002F5F3F4F7901F70120812093F100970107
:101E70002F5F3F4F7901F70120812093F1009701F7
:101E80002F5F3F4F7901F70120812093F1009701E7
:101E90002F5F3F4F7901F70120812093F1009701D7
:101EA0002F5F3F4F7901F70120812093F1009701C7
:101EB0002F5F3F4F7901F70120812093F1009701B7
:101EC0002F5F3F4F7901F70120812093F1009701A7
:101ED0002F5F3F4F7901F70120812093F100970197
:101EE0002F5F3F4F7901F70120812093F100970187
:101EF0002F5F3F4F7901F70120812093F100970177
:101F00002F5F3F4F7901F70120812093F100970166
:101F10002F5F3F4F7901F70120812093F100970156
:101F20002F5F3F4F7901F70120812093F100970146
:101F30002F5F3F4F7901F70120812093F100970136
:101F40002F5F3F4F7901F70120812093F100970126
:101F50002F5F3F4F7901F70120812093F100970116
:101F60002F5F3F4F7901F70120812093F100970106
:101F70002F5F3F4F7901F70120812093F1009701F6
:101F80002F5F3F4F7901F70120812093F1009701E6
:101F90002F5F3F4F7901F70120812093F1009701D6
:101FA0002F5F3F4F7901F70120812093F1009701C6
:101FB0002F5F3F4F7901F70120812093F1009701B6
:101FC0002F5F3F4F7901F70120812093F1009701A6
:101FD0002F5F3F4F7901F70120812093F100970196
:101FE0002F5F3F4F7901F70120812093F100970186
:101FF0002F5F3F4F7901F70120812093F100970176
:102000002F5F3F4F7901F70120812093F100970165
:102010002F5F3F4F7901F70120812093F100970155
:102020002F5F3F4F7901F70120812093F100970145
:102030002F5F3F4F7901F70120812093F100970135
:102040002F5F3F4F7901F70120812093F100970125
:102050002F5F3F4F7901F70120812093F100970115
:102060002F5F3F4F7901F70120812093F100970105
:102070002F5F3F4F7901F70120812093F1009701F5
:102080002F5F3F4F7901F70120812093F1009701E5
:102090002F5F3F4F7901F70120812093F1009701D5
:1020A0002F5F3F4F7901F70120812093F1009701C5
:1020B0002F5F3F4F7901F70120812093F1009701B5
:1020C0002F5F3F4F7901F70120812093F1009701A5
:1020D0002F5F3F4F7901F70120812093F100970195
:1020E0002F5F3F4F7901F70120812093F100970185
:1020F0002F5F3F4F7901F70120812093F100970175
:102100002F5F3F4F7901F70120812093F100970164
:102110002F5F3F4F7901F70120812093F100970154
:102120002F5F3F4F7901F70120812093F100970144
:102130002F5F3F4F7901F70120812093F100970134
:102140002F5F3F4F7901F70120812093F100970124
:102150002F5F3F4F7901F70120812093F100970114
:102160002F5F3F4F7901F70120812093F100970104
:102170002F5F3F4F7901F70120812093F1009701F4
:102180002F5F3F4F7901F70120812093F1009701E4
:102190002F5F3F4F7901F70120812093F1009701D4
:1021A0002F5F3F4F7901F70120812093F1009701C4
:1021B0002F5F3F4F7901F70120812093F1009701B4
:1021C0002F5F3F4F7901F70120812093F1009701A4
:1021D0002F5F3F4F7901F70120812093F100970194
:1021E0002F5F3F4F7901F70120812093F100970184
:1021F0002F5F3F4F7901F70120812093F100970174
:102200002F5F3F4F7901F70120812093F100970163
:102210002F5F3F4F79012091E80025FFD093E80020
:1022200010932802AFBFC5CD80E0DF91CF911F9101
:10223000FF90EF9008958FB7F8949091280299231A
:1022400041F094E09093E9009AE39093E8001092B3
:1022500028028FBF089560916A0170916B0180918F
:102260006C0190916D01089580916E0108958091A7
:102270006F0108958091700108958091260208955C
:102280009FB7F89420912902222339F022E020936D
:10229000E9002091E80025FD03C09FBF8FEF08955E
:1022A00021EA2093F10020E22093F1001092F10046
:1022B0001092F1001092F1001092F10021E02093B1
:1022C000F1001092F1008093F1008AE38093E8001E
:1022D0009FBF80E008951F920F920FB60F921124B6
:1022E0008F939F938091E1001092E10083FF11C0D2
:1022F0001092E90091E09093EB001092EC0092E1D3
:102300009093ED0098E09093F000109229021092C3
:10231000260282FF13C080912902882379F08091E0
:102320002802882359F0815080932802811106C029
:1023300084E08093E9008AE38093E8009F918F9185
:102340000F900FBE0F901F9018951F920F920FB60F
:102350000F921124EF92FF920F931F932F933F93AD
:102360004F935F936F937F938F939F93AF93BF939D
:10237000EF93FF93CF93DF931F92CDB7DEB7109209
:10238000E9008091E80083FF14C19091F1008091F1
:10239000F1003091F1002091F100E32EF12CF22AAE
:1023A0000091F1002091F10010E0122B2091F1003A
:1023B0006091F10032EF3093E800863009F046C0BA
:1023C00036E08EE291E0FC01459154914E155F0597
:1023D00039F4FC013296459154914017510721F090
:1023E0000796315081F7E5C0FC0134964591549130
:1023F000FC013696849130E0362B2F3F310519F0E1
:1024000010F02FEF30E0281708F4822F3EEF909164
:10241000E800292F2570D9F392FDCEC0982F813185
:1024200008F090E1FA01292F222331F064916093A2
:10243000F10021503196F8CF490F511D891B30937F
:10244000E8008111E4CF903111F3B6C0853051F42A
:102450008EEF8093E8000E94E80D8E2D80688093B7
:10246000E300AAC0893059F5911180C0E092290299
:1024700010922602109228028EEF8093E80041E02D
:102480008DEE91E04093E9009C012F5F3F4FFC01EE
:1024900054915093EB00552359F0F9012491209366
:1024A000EC009C012D5F3F4F319684918093ED00AD
:1024B0004F5F453011F0C901E5CF8EE175C088301E
:1024C00051F4903809F052C00E94E80D8091290221
:1024D0008093F10047C0813279F4913A09F046C007
:1024E0000E94E80DEAE6F1E081918093F10081E03D
:1024F000E137F807C9F736C0803299F49132B1F567
:102500008091E80082FFFCCFEAE6F1E08091F100E3
:10251000819381E0E137F807C9F78BEF8093E800FA
:1025200021C0823241F4913209F043C0E092260288
:102530000E94E80D17C0811119C099830E94E80D0F
:102540009981923851F40093E9008091EB0085FB6A
:10255000882780F91092E90001C080E08093F100A3
:102560001092F1008EEF8093E80026C0282F2D7F77
:102570002130F9F49230E9F4EF28D9F40F779FEF86
:10258000900F9430B0F49EEF9093E8000093E90030
:10259000833079F089E18093EB0081E090E0002EB8
:1025A00001C0880F0A94EAF78093EA001092EA00CB
:1025B00003C081E28093EB000F90DF91CF91FF91F8
:1025C000EF91BF91AF919F918F917F916F915F91AB
:1025D0004F913F912F911F910F91FF90EF900F908E
:1025E0000FBE0F901F901895CF93DF93CDB7DEB736
:1025F000C055D1090FB6F894DEBF0FBECDBF0E9403
:10260000A9030E94CA0380E88093610081E080935F
:1026100061000E947C030E94BC170E9402040E9479
:10262000A9170E943C04892BB1F300E010E0EE24CE
:10263000E394F12C0E94BC17C8010E944D048C0148
:102640000115110509F05CC00E94BC17AE014F5F77
:102650005F4F6EED71E081E090E00E945F0480E0EA
:1026600090E00E944D048C010E941A04892B11F104
:102670000E94E90480910001909101011816190649
:10268000ACF4809120029091210244977CF40E9446
:10269000BC17CE0101960E94A2040E94A9050E94C7
:1026A000AF090E94BF0C0E94A917E4CFC8010E9485
:1026B000DE0C8C010E94A917C3CF0E94BC17AE018B
:1026C0004F5F5F4F64EE71E082E090E00E945F0434
:1026D00081E090E00E944D048C010E941A04892B35
:1026E00069F00E94E904809100019091010118169F
:1026F000190654F0C8010E94DE0C8C010E94A91733
:1027000001301105D1F28DC08091200290912102FB
:10271000449784F70E94BC17CE0101960E94A20440
:102720000E9433060E94AF090E94BF0C0E94A917A5
:10273000DACF0E94BC17AE014F5F5F4F63EF71E0CD
:1027400083E090E00E945F0482E090E00E944D04EC
:102750008C010E941A04892B09F461C00E94E904CB
:1027600010922302109222020E94BC174FEF51E0F8
:1027700061E18EE00E9470194BE052E068E189E06F
:102780000E9470190E94A9170E94060E8823E1F387
:102790000E943D118823C1F310923F021092400223
:1027A000109241021092420210924302109244028F
:1027B0001092450210924602109254021092550255
:1027C000109256021092570210925802109259021B
:1027D00010925A0210925B021092690210926A02E1
:1027E00010926B0210926C0210926D0210926E02A7
:1027F00010926F02109270020E940E0A0E94B70996
:10280000F0921B02E0921A02809100019091010166
:10281000181619065CF0C8010E94DE0C8C010E949B
:10282000A9170230110509F484CF15C08091200248
:102830009091210244977CF70E94BC17CE0101962B
:102840000E94A2040E945A060E94AE0C0E94BF0C75
:102850000E94A917D9CF0E94A917ECCEA3E1B0E03E
:10286000E4E3F4E10C94381E7C011B016A01FC01D5
:1028700017821682838181FF66C3BE016F5F7F4F1F
:102880004B01F7019381F10193FD859193FF8191B4
:102890001F01882309F453C3853239F493FD8591D0
:1028A00093FF81911F01853239F4B70190E00E94B6
:1028B000CF1F56016501E5CF10E0512C20E02032FA
:1028C000A0F48B3269F030F4803259F0833269F42D
:1028D00020612CC08D3239F0803339F4216026C05C
:1028E0002260246023C0286021C027FD27C030ED6E
:1028F000380F3A3078F426FF06C0FAE01F9F300DFB
:102900001124132F13C06AE0569E300D1124532E4C
:1029100020620CC08E3221F426FD11C3206406C053
:102920008C3611F4206802C0883641F4F10193FD21
:10293000859193FF81911F018111C1CF9BEB980F6E
:10294000933018F42061805E06C09BE9980F9330A5
:1029500008F0AAC12F7E26FF16E02F73722E85364F
:1029600021F4F22FF0647F2E08C0863621F4622F06
:102970006068762E02C01111115077FE07C01C331B
:1029800048F444244394410E27E00BC0183030F43F
:10299000212F06C027E04CE3442E03C027E017E0B8
:1029A000412C560174E0A70EB11CF60160817181C3
:1029B00082819381042DA4010E94E11E6C01098192
:1029C00000FF02C003FF06C071FC07C072FC08C014
:1029D000612C08C03DE2632E05C02BE2622E02C0CE
:1029E00090E2692E802F8C7099F1662011F084E0BE
:1029F00001C083E0851510F0512C0BC0581A73FCF0
:102A000008C0B70180E290E00E94CF1F5A94C9F736
:102A1000F3CF662029F0B701862D90E00E94CF1FEA
:102A200003FD03C00BEF11E002C007EF11E0F72D2B
:102A3000F0717F2EF8018491882309F476C2711019
:102A40008052B70190E00E94CF1F0F5F1F4FF2CF5F
:102A500077FE0FC04C0C04FF04C08A81813309F457
:102A60004A94141474F5F8E0F41578F588E0482ECB
:102A70002CC076FC2AC0812F90E08C159D059CF01F
:102A80006CEFC6166FEFD60674F0772D7068772E50
:102A90000AC0E2E0F0E0EC0FFD1FE10FF11D8081C4
:102AA000803319F411501111F4CF77FE0EC0442475
:102AB0004394410E812F90E0C816D9062CF41C19BE
:102AC00004C04424439401C010E077FE07C01C14E6
:102AD0001D043CF496012F5F3F4F05C025E030E018
:102AE00002C021E030E0662011F02F5F3F4F11233C
:102AF00031F0412F50E04F5F5F4F240F351F452DC0
:102B000050E02417350714F4521A01C0512C872DB8
:102B1000897049F4552039F0B70180E290E00E94B5
:102B2000CF1F5A94F7CF662029F0B701862D90E089
:102B30000E94CF1F73FC09C0552039F0B70180E314
:102B400090E00E94CF1F5A94F7CF77FE5FC09C2D74
:102B50008D2DD7FE02C090E080E0692E782E40E0F7
:102B600050E0C601841991099D878C87960126192A
:102B70003709280D391D812F90E0EE27FF27E81B2C
:102B8000F90BFF87EE87FFEF6F167F0669F4B70139
:102B90008EE290E02B8B3A8B488B598B0E94CF1F93
:102BA000598948893A892B89C614D70454F06C8511
:102BB0007D85661577052CF4F901E40FF51F8181F9
:102BC00001C080E371E0671A71084F5F5F4FEE85C7
:102BD000FF856E167F066CF0B70190E02B8B3A8B69
:102BE000488B598B0E94CF1F2B893A894889598974
:102BF000CACF6C147D0439F49A81963318F4953356
:102C000011F404FF81E3B70190E04BC08A81813366
:102C100009F00F7EB70190E00E94CF1F111105C08F
:102C200074FE18C085E490E017C0B7018EE290E012
:102C30000E94CF1F82E066246394680EF401E80FBF
:102C4000F11D8081B70190E00E94CF1F115041F328
:102C5000862DF1CF85E690E0B7010E94CF1FD7FC0B
:102C600005C0C114D10439F404FF05C0D194C19446
:102C7000D1088DE201C08BE2B70190E00E94CF1F26
:102C800080E36AE0C616D1042CF08F5FFAE0CF1A19
:102C9000D108F7CFB70190E00E94CF1FB701C6015E
:102CA000C0960E94CF1F41C1833631F0833779F03F
:102CB000833509F058C021C0560172E0A70EB11C3F
:102CC000F6018081898301E010E0640114C056019F
:102CD000F2E0AF0EB11CF601C080D18026FF03C028
:102CE000612F70E002C06FEF7FEFC6012B8B0E9457
:102CF000C41F8C012B892F7715C05601F2E0AF0E4F
:102D0000B11CF601C080D18026FF03C0612F70E0A6
:102D100002C06FEF7FEFC6012B8B0E94B91F8C01A1
:102D20002B892068722E23FD1AC0852D90E008178C
:102D30001907A8F4B70180E290E00E94CF1F5A94CF
:102D4000F4CFF60177FC859177FE81916F01B70191
:102D500090E00E94CF1F51105A94015011090115A3
:102D6000110579F7E2C0843611F0893651F5560124
:102D700027FF09C0F4E0AF0EB11CF601608171813C
:102D8000828193810AC0F2E0AF0EB11CF60160812E
:102D90007181882777FD8095982F022F0F7697FFF6
:102DA00008C090958095709561957F4F8F4F9F4F8C
:102DB00000682AE030E0A4010E942320C82EC81831
:102DC0003EC0022F853721F40F7E2AE030E01DC07F
:102DD000097F8F3691F018F4883559F0B0C08037EC
:102DE00019F0883711F0ABC0006104FF09C004601E
:102DF00007C024FF08C0066006C028E030E005C018
:102E000020E130E002C020E132E0560107FF09C0B6
:102E1000F4E0AF0EB11CF601608171818281938173
:102E200008C0F2E0AF0EB11CF6016081718180E054
:102E300090E0A4010E942320C82EC8180F7706FF37
:102E40000BC0202F2E7FC11650F404FF0AC002FDD4
:102E500008C0202F2E7E05C0DC2C202F03C0DC2CC8
:102E600001C0D12E24FF0DC0FE01EC0DF11D8081AB
:102E7000803311F4297E09C022FF06C0D394D39475
:102E800004C0822F867809F0D39423FD13C020FF5D
:102E900006C01C2DD51418F4150D1D19D52CD514EC
:102EA00068F4B70180E290E02B8B0E94CF1FD3948F
:102EB0002B89F5CFD51410F45D1801C0512C24FFD7
:102EC00012C0B70180E390E02B8B0E94CF1F2B89AB
:102ED00022FF17C021FF03C088E590E002C088E709
:102EE00090E0B7010CC0822F867859F021FD02C016
:102EF00080E201C08BE227FD8DE2B70190E00E94E5
:102F0000CF1FC11638F4B70180E390E00E94CF1FB5
:102F10001150F7CFCA94F401EC0DF11D8081B70177
:102F200090E00E94CF1FC110F5CF552009F4C2CC0C
:102F3000B70180E290E00E94CF1F5A94F6CFF701CC
:102F40008681978102C08FEF9FEF6396E2E10C9438
:102F5000541ECF93DF9360E080E00E94111ACEE709
:102F6000D2E0699181E00E94851984E0C637D807D4
:102F7000C1F7DF91CF910895EEE7F2E0119284E07E
:102F8000E637F807D9F70895843500F56033F0F493
:102F9000E62FE695E695E695677094E5E99FF001E2
:102FA000112490E0E80FF91FE258FD4F81E090E016
:102FB000062E01C0880F0A94EAF7442319F0908185
:102FC000982B03C0809590819823908308952F9229
:102FD0003F924F925F926F927F928F929F92AF92A9
:102FE000BF92CF92DF92EF92FF920F931F93CF93F6
:102FF000DF93CDB7DEB72D970FB6F894DEBF0FBEC7
:10300000CDBFE82E262ED42EF22E84131DC0C62E40
:10301000D12C022F10E02F1498F40C151D050CF480
:10302000F5C041E06C2D8E2D0E94C4172F1420F4A2
:103030002FEFC21AD20AEFCF31E0C31AD108EBCF7B
:10304000C016D10674F7E2C0082F10E0842F90E07C
:103050009D878C8762131BC0ED1498F4EC85FD8569
:10306000E017F1070CF4D2C041E0622D802F0E94DE
:10307000C417ED1418F40F5F1F4FEECF0150110964
:10308000EBCF2C853D850217130774F7BFC06C8505
:103090007D85601B710B882777FD8095982F0E9496
:1030A000941C2B013C018F2D90E09E838D83312C4D
:1030B000BC0162197309882777FD8095982F0E94BB
:1030C000941C4B015C01A30192010E94F91B6983CE
:1030D0007A838B839C8320E030E0A9010E94971DB6
:1030E00087FF0BC0A3019201C501B40190580E9453
:1030F000F91B69837A838B839C83C12CD12C760145
:1031000020E030E0A901C301B2010E94971D18160A
:103110000CF076C0EC85FD85E017F1070CF476C065
:103120000B8741E0622D802F0E94C41729813A81CC
:103130004B815C81C701B6010E947E1B6B017C0143
:1031400020E030E040E05FE30E94971D87FF0DC064
:1031500020E030E0A901C301B2010E94971D1816BA
:103160000CF04BC00F5F1F4FCBCF20E030E0A90128
:10317000C501B4010E94971D1816CCF52D813E8122
:10318000221533052CF341E0622D8B850E94C41774
:10319000E1E0F0E0F887EF8320E030E0A901C5012D
:1031A000B4010E94971D181614F018861F8221E0A2
:1031B00030E03A87298720E030E0A901C501B40159
:1031C0000E94F51B87FD02C01A8619868F8198859B
:1031D000E985FA858E1B9F0B280E391E20E030E012
:1031E00040E85FE3C701B6010E947D1BA7CF8D8138
:1031F0009E81281639063CF6ABCF0150110980CFCD
:103200002C853D85021713070CF08ACF2D960FB63B
:10321000F894DEBF0FBECDBFDF91CF911F910F910C
:10322000FF90EF90DF90CF90BF90AF909F908F90E6
:103230007F906F905F904F903F902F9008957F9276
:103240008F929F92AF92BF92CF92DF92EF92FF92B6
:103250000F931F93CF93DF93882E762E85E0489FA0
:103260007001112400E010E0F701E15AFE4F7F01E8
:10327000AA24A394B12C6701C00ED11EC0E0D0E0F7
:10328000982C900EF6012491A5010C2E02C0440F3B
:10329000551F0A94E2F730E0422353230C2E02C05C
:1032A000559547950A94E2F76C2F670D892D0E947A
:1032B000C4172196C830D10529F70F5F1F4F05307D
:1032C0001105C9F6DF91CF911F910F91FF90EF90FB
:1032D000DF90CF90BF90AF909F908F907F90089598
:1032E0000F931F93CF93DF93062FEA01182F499175
:1032F000442331F0602F812F0E941F191B5FF7CFED
:10330000DF91CF911F910F91089525B130E2839FF6
:10331000C00111242F7D282B25B95F9887E090E00C
:1033200070E08F989B01082E02C0359527950A946E
:10333000E2F720FF02C02E9A01C02E988F9A0197C3
:1033400080F75F9A0895CF93C82F579A249A259AA9
:10335000269A879A2C985F9A2C9A61E280E00E94C4
:1033600085196C2F606880E00E94851964E080E018
:103370000E94851963E180E00E9485196CE080E07D
:103380000E94851960E280E00E9485196CE080E06F
:103390000E94851960E480E00E94851960E880E061
:1033A000CF910C948519CF93DF93C8EFD1E060E003
:1033B00081E00E94851921972097C9F7DF91CF916D
:1033C00008950F931F93CF93DF93082F60E081E060
:1033D0000E94851985E0089F80011124C0E0D0E09B
:1033E000015C1C4FF801EC0FFD1F649181E00E940D
:1033F00085192196C530D105A9F760E081E0DF91FC
:10340000CF911F910F910C948519CF93DF93EC010D
:103410008991882319F00E94E119FACFDF91CF91A9
:103420000895CF93C82F606480E00E9485196C2FA7
:10343000606880E0CF910C948519AF92BF92CF92D3
:10344000EF920F931F93FC01408351836283738338
:103450000483158326833783E08AC18AB48AA38ACA
:1034600081E0828B1086118612861386148615865B
:10347000168617861F910F91EF90CF90BF90AF9057
:1034800008956F927F929F92AF92BF92CF92DF92F8
:10349000EF92FF920F931F93CF93DF9300D000D052
:1034A000CDB7DEB73C01DC0152968C915297882350
:1034B00009F478C050966C9170E080E090E00E9432
:1034C000941C20E030E040E05EE30E949B1D0E94DF
:1034D000E21B0E94661C962EA12CF3018189A8167E
:1034E00008F060C0A99C60011124B12CEE24D7FC27
:1034F000E094FE2CD30150968C91B81608F050C081
:103500000B2D10E0B801882777FD8095982F0E9439
:10351000941C20E030E040E05EE30E949B1D0E948E
:10352000CF1C9B01AC01C701B60129833A834C83B0
:103530005B830E94941C29813A814C815B810E94AB
:103540007E1B0E94611CD3015396ED91FC91549710
:10355000E60FF71F408150E0009510950770112786
:1035600002C0559547950A95E2F7417014966D9102
:103570007D918D919C9117974C830E94661C162F0C
:103580001A0DF30160817181828193810E94661C12
:10359000862F4C81612F8B0D0E94C417B394AACF44
:1035A000A3949BCF0F900F900F900F90DF91CF912E
:1035B0001F910F91FF90EF90DF90CF90BF90AF9051
:1035C0009F907F906F9008954F925F926F927F923D
:1035D0008F929F92AF92BF92CF92DF92EF92FF9223
:1035E0000F931F93CF93DF9300D000D0CDB7DEB7FA
:1035F0002C01662E842EDC0152968C9152978823E2
:1036000009F466C050966C9170E080E090E00E94F2
:10361000941C20E030E040E05EE30E949B1D0E948D
:10362000E21B0E94661C762EB12CD20151968C9121
:10363000B81608F04DC0B79C60011124A12CEE24EF
:10364000D7FCE094FE2C9B2C980CF2018089A816E4
:10365000E8F50A2D10E0B801882777FD8095982FAE
:103660000E94941C20E030E040E05EE30E949B1D3D
:103670000E94CF1C9B01AC01C701B60129833A838C
:103680004B835C830E94941C29813A814B815C812D
:103690000E947E1B0E94611CD2015396ED91FC9109
:1036A0005497E60FF71F408150E000951095077082
:1036B000112702C0559547950A95E2F74170692D8B
:1036C0008A2D860D0E94C417A394BFCFB394ADCFAB
:1036D0000F900F900F900F90DF91CF911F910F914E
:1036E000FF90EF90DF90CF90BF90AF909F908F9022
:1036F0007F906F905F904F9008955058BB27AA27F6
:103700000ED0C4C1B5D130F0BAD120F031F49F3F12
:1037100011F41EF4AAC10EF4E095E7FB77C1E92F7E
:10372000C6D180F3BA17620773078407950718F0AC
:1037300071F49EF5F5C10EF4E0950B2EBA2FA02D75
:103740000B01B90190010C01CA01A0011124FF274E
:10375000591B99F0593F50F4503E68F11A16F04049
:10376000A22F232F342F4427585FF3CF4695379548
:103770002795A795F0405395C9F77EF41F16BA0B0D
:10378000620B730B840BBAF09150A1F0FF0FBB1FBB
:10379000661F771F881FC2F70EC0BA0F621F731F04
:1037A000841F48F4879577956795B795F7959E3F61
:1037B00008F0B3CF9395880F08F09927EE0F9795EF
:1037C0008795089596D180F09F3740F491110EF4BB
:1037D000A8C160E070E080E89FE3089526F01B1622
:1037E000611D711D811D18C132C1ECD008F481E04A
:1037F00008950CD04BC143D140F03AD130F021F4C0
:103800005F3F19F003C151118CC12FC150D198F302
:103810009923C9F35523B1F3951B550BBB27AA2751
:1038200062177307840738F09F5F5F4F220F331FC3
:10383000441FAA1FA9F333D00E2E3AF0E0E830D08F
:1038400091505040E695001CCAF729D0FE2F27D092
:10385000660F771F881FBB1F261737074807AB0760
:10386000B0E809F0BB0B802DBF01FF2793585F4FD5
:103870002AF09E3F510568F0C9C053C15F3FECF389
:10388000983EDCF3869577956795B795F7959F5F9A
:10389000C9F7880F911D9695879597F90895E1E0EE
:1038A000660F771F881FBB1F621773078407BA074D
:1038B00020F0621B730B840BBA0BEE1F88F7E095A8
:1038C000089504D06894B1112CC10895F8D088F0FF
:1038D0009F5790F0B92F9927B751A0F0D1F0660FFC
:1038E000771F881F991F1AF0BA95C9F712C0B13017
:1038F00081F016D1B1E0089513C1672F782F882782
:10390000B85F39F0B93FCCF3869577956795B39555
:10391000D9F73EF490958095709561957F4F8F4FC4
:103920009F4F0895E89409C097FB3EF490958095C9
:10393000709561957F4F8F4F9F4F9923A9F0F92F75
:1039400096E9BB279395F695879577956795B795F3
:10395000F111F8CFFAF4BB0F11F460FF1BC06F5FD9
:103960007F4F8F4F9F4F16C0882311F096E911C0EB
:10397000772321F09EE8872F762F05C0662371F00C
:1039800096E8862F70E060E02AF09A95660F771F20
:10399000881FDAF7880F9695879597F90895A9D02B
:1039A00080F09F3740F491110EF0BBC060E070E0F2
:1039B00080E89FEB089526F41B16611D711D811D83
:1039C0002BC045C0990F0008550FAA0BE0E8FEEF89
:1039D00016161706E807F907C0F012161306E407D3
:1039E000F50798F0621B730B840B950B39F40A26CC
:1039F00061F0232B242B252B21F408950A2609F4AA
:103A0000A140A6958FEF811D811D089597F99F67AD
:103A100080E870E060E00895882371F4772321F056
:103A20009850872B762F07C0662311F499270DC075
:103A30009051862B70E060E02AF09A95660F771F10
:103A4000881FDAF7880F9695879597F908959F3F15
:103A500031F0915020F4879577956795B795880F49
:103A6000911D9695879597F908959FEF80EC08959D
:103A700000240A941616170618060906089500244D
:103A80000A9412161306140605060895092E0394C7
:103A9000000C11F4882352F0BB0F40F4BF2B11F43B
:103AA00060FF04C06F5F7F4F8F4F9F4F089557FD9A
:103AB0009058440F551F59F05F3F71F04795880F9C
:103AC00097FB991F61F09F3F79F087950895121633
:103AD00013061406551FF2CF4695F1DF08C01616DF
:103AE00017061806991FF1CF869571056105089490
:103AF0000895E5DFA0F0BEE7B91788F4BB279F382B
:103B000060F41616B11D672F782F8827985FF7CFBE
:103B1000869577956795B11D93959639C8F3089565
:103B2000E894BB2766277727CB0197F908954ADFEA
:103B300008F48FEF08950BD0A9CF9ADF28F09FDF0C
:103B400018F0952309F062CF90CF1124EACFAFDFB0
:103B5000A0F3959FD1F3950F50E0551F629FF001A0
:103B6000729FBB27F00DB11D639FAA27F00DB11DF9
:103B7000AA1F649F6627B00DA11D661F829F222782
:103B8000B00DA11D621F739FB00DA11D621F839F09
:103B9000A00D611D221F749F3327A00D611D231FDF
:103BA000849F600D211D822F762F6A2F11249F572D
:103BB00050408AF0E1F088234AF0EE0FFF1FBB1F50
:103BC000661F771F881F91505040A9F79E3F5105EF
:103BD00070F01CCFA6CF5F3FECF3983EDCF38695E8
:103BE00077956795B795F795E7959F5FC1F7FE2B9A
:103BF000880F911D9695879597F9089560DFE0F0FD
:103C00009E37D8F09639B8F49E3848F4672F782F4D
:103C10008827985FF9CF869577956795939595391D
:103C2000D0F3B62FB1706B0F711D811D20F48795F5
:103C3000779567959395F0CE0ACF73CF97FB072EB4
:103C400016F4009407D077FD09D00E946F1E07FC80
:103C500005D03EF4909581959F4F0895709561959C
:103C60007F4F0895EE0FFF1F0590F491E02D09940A
:103C70002F923F924F925F926F927F928F929F927C
:103C8000AF92BF92CF92DF92EF92FF920F931F936A
:103C9000CF93DF93CDB7DEB7CA1BDB0B0FB6F8941B
:103CA000DEBF0FBECDBF09942A88398848885F845B
:103CB0006E847D848C849B84AA84B984C884DF80CC
:103CC000EE80FD800C811B81AA81B981CE0FD11DB0
:103CD0000FB6F894DEBF0FBECDBFED010895AA1B4D
:103CE000BB1B51E107C0AA1FBB1FA617B70710F0E7
:103CF000A61BB70B881F991F5A95A9F78095909519
:103D0000BC01CD0108958F929F92AF92BF92CF9246
:103D1000DF92EF92FF92CF93DF93EC01688179817C
:103D20008A819B81611571058105910521F464E209
:103D300079ED8BE597E02DE133EF41E050E00E9413
:103D4000812049015A019B01AC01A7EAB1E40E941C
:103D5000A0206B017C01ACEEB4EFA50194010E94A0
:103D6000AE20C60ED71EE81EF91EF7FE06C081E083
:103D7000C81AD108E10880E8F80AC882D982EA8224
:103D8000FB82C6019F77DF91CF91FF90EF90DF908C
:103D9000CF90BF90AF909F908F9008950E94831E08
:103DA000089581E791E00E94831E0895A0E0B0E0AD
:103DB0008093710190937201A0937301B093740189
:103DC0000895283008F027E03327DA01990F311DD4
:103DD00087FD916000966105710539F432602E5FB0
:103DE0003D9330E32A95E1F708959F3F30F0803806
:103DF0007105610509F03C5F3C5F3D93913008F02F
:103E00008068911DDF93CF931F930F93FF92EF92E2
:103E1000192F987F9695E92F96959695E90FFF278C
:103E2000E75EF94F99273327EE24FF24A701E70126
:103E300005900894079428F4360FE71EF81E491FD2
:103E4000511D660F771F881F991F0694A1F70590D3
:103E5000079428F4E70EF81E491F561FC11D770F5F
:103E6000881F991F661F0694A1F70590079428F4F0
:103E7000F80E491F561FC71FD11D880F991F661FB7
:103E8000771F0694A1F70590079420F4490F561F59
:103E9000C71FD81F990F661F771F881F0694A9F7A1
:103EA00084911095177041F0D695C7955795479511
:103EB000F794E7941A95C1F7EFEBF5E06894159045
:103EC000159135916591959105907FE27395E11873
:103ED000F10A430B560BC90BD009C0F7E10CF11ED8
:103EE000431F561FC91FD01D7EF4703311F48A95ED
:103EF000E6CFE894015030F0080F0AF400270217CB
:103F000008F4202F2395022F7A3328F079E37D934C
:103F10002A95E9F710C07D932A9589F6069497951E
:103F20006795379517951794E118F10A430B560BCF
:103F3000C90BD00998F023957E9173957A3308F0D8
:103F400070E37C932013B8F77E9170617D9330F01D
:103F5000839571E37D9370E32A95E1F71124EF9047
:103F6000FF900F911F91CF91DF91992787FD909539
:103F70000895FC010590615070400110D8F78095BC
:103F800090958E0F9F1F0895FC0161507040019025
:103F90000110D8F7809590958E0F9F1F08950F936D
:103FA0001F93CF93DF93182F092FEB018B8181FD96
:103FB00003C08FEF9FEF20C082FF10C04E815F8152
:103FC0002C813D81421753077CF4E881F9819F01E0
:103FD0002F5F3F4F39832883108306C0E885F9851A
:103FE000812F0995892B29F72E813F812F5F3F4F24
:103FF0003F832E83812F902FDF91CF911F910F91BF
:104000000895AEE0B0E0E7E0F0E20C94461E0D89C2
:104010001E8986E08C831A8309838FEF9FE79E8336
:104020008D83AE01475E5F4F6F89788DCE0101961B
:104030000E942E14EF81F885E00FF11F10822E965A
:10404000E4E00C94621EFA01AA27283051F12031D5
:1040500081F1E8946F936E7F6E5F7F4F8F4F9F4F1C
:10406000AF4FB1E03ED0B4E03CD0670F781F891F5E
:104070009A1FA11D680F791F8A1F911DA11D6A0F2C
:10408000711D811D911DA11D20D009F468943F91DF
:104090002AE0269F11243019305D3193DEF6CF01DE
:1040A0000895462F4770405D4193B3E00FD0C9F7A4
:1040B000F6CF462F4F70405D4A3318F0495D31FD11
:1040C0004052419302D0A9F7EACFB4E0A695979564
:1040D000879577956795BA95C9F70097610571053A
:1040E00008959B01AC010A2E069457954795379584
:1040F0002795BA95C9F7620F731F841F951FA01DDE
:104100000895052E97FB1EF400940E94982057FDF9
:1041100007D00E94B32007FC03D04EF40C949820E3
:1041200050954095309521953F4F4F4F5F4F0895E3
:1041300090958095709561957F4F8F4F9F4F089513
:104140000E94D520A59F900DB49F900DA49F800D37
:10415000911D11240895B7FF0C94A0200E94A02067
:10416000821B930B0895A1E21A2EAA1BBB1BFD0113
:104170000DC0AA1FBB1FEE1FFF1FA217B307E40746
:10418000F50720F0A21BB30BE40BF50B661F771F9E
:10419000881F991F1A9469F760957095809590957E
:1041A0009B01AC01BD01CF010895A29FB001B39F57
:1041B000C001A39F700D811D1124911DB29F700D30
:0C41C000811D1124911D0895F894FFCF7B
:1041CC00030007E0181820044002581A98198001BF
:1041DC00800190099009881147E2400220041818C8
:1041EC0007E007E0181820044002580298018019D3
:1041FC008019800187F18181400240022004181847
:10420C0007E007E01818200440024812842182417C
:10421C008001800183C184214812400220041818B7
:10422C0007E000888888F888888800E10000000092
:10423C0008010000005468616E61740043686F6B84
:10424C0077696A69746B756C006E39323334393046
:10425C003000507265737320616E792062757474CE
:10426C006F6E004C6576656C002564004C65667459
:10427C003A20506C61790052696768743A20536B2C
:10428C006970004C3A002C20533A00596F75207716
:10429C00696E2100596F75206C6F73652100426146
:1042AC0073696300506F74656E74696F6D657465C6
:1042BC0072730053657269616C20506F7274005791
:1042CC00616974696E6720666F720074686520702E
:0A42DC006C617965722E2E2E000031
:040000050080022253
:00000001FF
